{
  "contractName": "Wallet",
  "abi": [
    {
      "anonymous": false,
      "inputs": [
        {
          "indexed": true,
          "internalType": "address",
          "name": "creator",
          "type": "address"
        },
        {
          "indexed": true,
          "internalType": "address",
          "name": "wallet",
          "type": "address"
        },
        {
          "indexed": true,
          "internalType": "address",
          "name": "activator",
          "type": "address"
        },
        {
          "indexed": false,
          "internalType": "uint8",
          "name": "state",
          "type": "uint8"
        }
      ],
      "name": "BackupActivated",
      "type": "event"
    },
    {
      "anonymous": false,
      "inputs": [
        {
          "indexed": true,
          "internalType": "address",
          "name": "creator",
          "type": "address"
        },
        {
          "indexed": true,
          "internalType": "address",
          "name": "owner",
          "type": "address"
        },
        {
          "indexed": true,
          "internalType": "address",
          "name": "wallet",
          "type": "address"
        },
        {
          "indexed": false,
          "internalType": "uint32",
          "name": "timeout",
          "type": "uint32"
        },
        {
          "indexed": false,
          "internalType": "uint40",
          "name": "timestamp",
          "type": "uint40"
        },
        {
          "indexed": false,
          "internalType": "uint8",
          "name": "state",
          "type": "uint8"
        }
      ],
      "name": "BackupChanged",
      "type": "event"
    },
    {
      "anonymous": false,
      "inputs": [
        {
          "indexed": true,
          "internalType": "address",
          "name": "creator",
          "type": "address"
        },
        {
          "indexed": true,
          "internalType": "address",
          "name": "wallet",
          "type": "address"
        },
        {
          "indexed": false,
          "internalType": "uint40",
          "name": "timestamp",
          "type": "uint40"
        },
        {
          "indexed": false,
          "internalType": "uint8",
          "name": "state",
          "type": "uint8"
        }
      ],
      "name": "BackupEnabled",
      "type": "event"
    },
    {
      "anonymous": false,
      "inputs": [
        {
          "indexed": true,
          "internalType": "address",
          "name": "creator",
          "type": "address"
        },
        {
          "indexed": true,
          "internalType": "address",
          "name": "payee",
          "type": "address"
        },
        {
          "indexed": false,
          "internalType": "uint256",
          "name": "amount",
          "type": "uint256"
        },
        {
          "indexed": false,
          "internalType": "bool",
          "name": "reward",
          "type": "bool"
        }
      ],
      "name": "BackupPayment",
      "type": "event"
    },
    {
      "anonymous": false,
      "inputs": [
        {
          "indexed": true,
          "internalType": "address",
          "name": "creator",
          "type": "address"
        },
        {
          "indexed": true,
          "internalType": "address",
          "name": "wallet",
          "type": "address"
        },
        {
          "indexed": false,
          "internalType": "uint8",
          "name": "state",
          "type": "uint8"
        }
      ],
      "name": "BackupRegistered",
      "type": "event"
    },
    {
      "anonymous": false,
      "inputs": [
        {
          "indexed": true,
          "internalType": "address",
          "name": "creator",
          "type": "address"
        },
        {
          "indexed": true,
          "internalType": "address",
          "name": "owner",
          "type": "address"
        },
        {
          "indexed": true,
          "internalType": "address",
          "name": "wallet",
          "type": "address"
        },
        {
          "indexed": false,
          "internalType": "uint8",
          "name": "state",
          "type": "uint8"
        }
      ],
      "name": "BackupRemoved",
      "type": "event"
    },
    {
      "anonymous": false,
      "inputs": [
        {
          "indexed": true,
          "internalType": "address",
          "name": "creator",
          "type": "address"
        },
        {
          "indexed": true,
          "internalType": "address",
          "name": "activator",
          "type": "address"
        },
        {
          "indexed": false,
          "internalType": "address[]",
          "name": "wallets",
          "type": "address[]"
        }
      ],
      "name": "InheritanceActivated",
      "type": "event"
    },
    {
      "anonymous": false,
      "inputs": [
        {
          "indexed": true,
          "internalType": "address",
          "name": "creator",
          "type": "address"
        },
        {
          "indexed": true,
          "internalType": "address",
          "name": "owner",
          "type": "address"
        },
        {
          "indexed": false,
          "internalType": "uint40",
          "name": "timeout",
          "type": "uint40"
        },
        {
          "indexed": false,
          "internalType": "uint40",
          "name": "timestamp",
          "type": "uint40"
        }
      ],
      "name": "InheritanceChanged",
      "type": "event"
    },
    {
      "anonymous": false,
      "inputs": [
        {
          "indexed": true,
          "internalType": "address",
          "name": "creator",
          "type": "address"
        },
        {
          "indexed": true,
          "internalType": "address",
          "name": "owner",
          "type": "address"
        },
        {
          "indexed": false,
          "internalType": "address[]",
          "name": "wallets",
          "type": "address[]"
        },
        {
          "indexed": false,
          "internalType": "uint16[]",
          "name": "bps",
          "type": "uint16[]"
        }
      ],
      "name": "InheritanceHeirsChanged",
      "type": "event"
    },
    {
      "anonymous": false,
      "inputs": [
        {
          "indexed": true,
          "internalType": "address",
          "name": "creator",
          "type": "address"
        },
        {
          "indexed": true,
          "internalType": "address",
          "name": "payee",
          "type": "address"
        },
        {
          "indexed": false,
          "internalType": "uint256",
          "name": "amount",
          "type": "uint256"
        },
        {
          "indexed": false,
          "internalType": "bool",
          "name": "reward",
          "type": "bool"
        }
      ],
      "name": "InheritancePayment",
      "type": "event"
    },
    {
      "anonymous": false,
      "inputs": [
        {
          "indexed": true,
          "internalType": "address",
          "name": "creator",
          "type": "address"
        },
        {
          "indexed": true,
          "internalType": "address",
          "name": "owner",
          "type": "address"
        }
      ],
      "name": "InheritanceRemoved",
      "type": "event"
    },
    {
      "anonymous": false,
      "inputs": [
        {
          "indexed": true,
          "internalType": "address",
          "name": "creator",
          "type": "address"
        },
        {
          "indexed": true,
          "internalType": "address",
          "name": "owner",
          "type": "address"
        },
        {
          "indexed": true,
          "internalType": "address",
          "name": "pendingOwner",
          "type": "address"
        },
        {
          "indexed": false,
          "internalType": "uint8",
          "name": "state",
          "type": "uint8"
        }
      ],
      "name": "OwnershipReclaimed",
      "type": "event"
    },
    {
      "anonymous": false,
      "inputs": [
        {
          "indexed": true,
          "internalType": "address",
          "name": "creator",
          "type": "address"
        },
        {
          "indexed": true,
          "internalType": "address",
          "name": "previousOwner",
          "type": "address"
        },
        {
          "indexed": true,
          "internalType": "address",
          "name": "newOwner",
          "type": "address"
        },
        {
          "indexed": false,
          "internalType": "uint8",
          "name": "state",
          "type": "uint8"
        }
      ],
      "name": "OwnershipTransferred",
      "type": "event"
    },
    {
      "anonymous": false,
      "inputs": [
        {
          "indexed": true,
          "internalType": "address",
          "name": "creator",
          "type": "address"
        },
        {
          "indexed": true,
          "internalType": "address",
          "name": "owner",
          "type": "address"
        },
        {
          "indexed": true,
          "internalType": "address",
          "name": "to",
          "type": "address"
        },
        {
          "indexed": false,
          "internalType": "uint256",
          "name": "value",
          "type": "uint256"
        }
      ],
      "name": "SentEther",
      "type": "event"
    },
    {
      "anonymous": false,
      "inputs": [
        {
          "indexed": true,
          "internalType": "address",
          "name": "creator",
          "type": "address"
        },
        {
          "indexed": true,
          "internalType": "address",
          "name": "token",
          "type": "address"
        },
        {
          "indexed": false,
          "internalType": "address",
          "name": "from",
          "type": "address"
        },
        {
          "indexed": true,
          "internalType": "address",
          "name": "to",
          "type": "address"
        },
        {
          "indexed": false,
          "internalType": "uint256",
          "name": "value",
          "type": "uint256"
        }
      ],
      "name": "Transfer20",
      "type": "event"
    },
    {
      "anonymous": false,
      "inputs": [
        {
          "indexed": true,
          "internalType": "address",
          "name": "creator",
          "type": "address"
        },
        {
          "indexed": true,
          "internalType": "address",
          "name": "token",
          "type": "address"
        },
        {
          "indexed": false,
          "internalType": "address",
          "name": "from",
          "type": "address"
        },
        {
          "indexed": true,
          "internalType": "address",
          "name": "to",
          "type": "address"
        },
        {
          "indexed": false,
          "internalType": "uint256",
          "name": "id",
          "type": "uint256"
        },
        {
          "indexed": false,
          "internalType": "bytes",
          "name": "data",
          "type": "bytes"
        }
      ],
      "name": "Transfer721",
      "type": "event"
    },
    {
      "stateMutability": "nonpayable",
      "type": "fallback"
    },
    {
      "inputs": [],
      "name": "BACKUP_STATE_ACTIVATED",
      "outputs": [
        {
          "internalType": "uint8",
          "name": "",
          "type": "uint8"
        }
      ],
      "stateMutability": "view",
      "type": "function",
      "constant": true
    },
    {
      "inputs": [],
      "name": "BACKUP_STATE_ENABLED",
      "outputs": [
        {
          "internalType": "uint8",
          "name": "",
          "type": "uint8"
        }
      ],
      "stateMutability": "view",
      "type": "function",
      "constant": true
    },
    {
      "inputs": [],
      "name": "BACKUP_STATE_PENDING",
      "outputs": [
        {
          "internalType": "uint8",
          "name": "",
          "type": "uint8"
        }
      ],
      "stateMutability": "view",
      "type": "function",
      "constant": true
    },
    {
      "inputs": [],
      "name": "BACKUP_STATE_REGISTERED",
      "outputs": [
        {
          "internalType": "uint8",
          "name": "",
          "type": "uint8"
        }
      ],
      "stateMutability": "view",
      "type": "function",
      "constant": true
    },
    {
      "inputs": [],
      "name": "accept",
      "outputs": [],
      "stateMutability": "nonpayable",
      "type": "function"
    },
    {
      "inputs": [],
      "name": "activateBackup",
      "outputs": [],
      "stateMutability": "nonpayable",
      "type": "function"
    },
    {
      "inputs": [],
      "name": "activateInheritance",
      "outputs": [],
      "stateMutability": "nonpayable",
      "type": "function"
    },
    {
      "inputs": [],
      "name": "claimOwnership",
      "outputs": [],
      "stateMutability": "nonpayable",
      "type": "function"
    },
    {
      "inputs": [],
      "name": "clearInheritance",
      "outputs": [],
      "stateMutability": "nonpayable",
      "type": "function"
    },
    {
      "inputs": [],
      "name": "creator",
      "outputs": [
        {
          "internalType": "address",
          "name": "",
          "type": "address"
        }
      ],
      "stateMutability": "pure",
      "type": "function",
      "constant": true
    },
    {
      "inputs": [],
      "name": "decline",
      "outputs": [],
      "stateMutability": "nonpayable",
      "type": "function"
    },
    {
      "inputs": [],
      "name": "enable",
      "outputs": [],
      "stateMutability": "nonpayable",
      "type": "function"
    },
    {
      "inputs": [],
      "name": "getBackupState",
      "outputs": [
        {
          "internalType": "uint8",
          "name": "",
          "type": "uint8"
        }
      ],
      "stateMutability": "view",
      "type": "function",
      "constant": true
    },
    {
      "inputs": [],
      "name": "getBackupTimeLeft",
      "outputs": [
        {
          "internalType": "uint40",
          "name": "_res",
          "type": "uint40"
        }
      ],
      "stateMutability": "view",
      "type": "function",
      "constant": true
    },
    {
      "inputs": [],
      "name": "getBackupTimeout",
      "outputs": [
        {
          "internalType": "uint40",
          "name": "",
          "type": "uint40"
        }
      ],
      "stateMutability": "view",
      "type": "function",
      "constant": true
    },
    {
      "inputs": [],
      "name": "getBackupTimestamp",
      "outputs": [
        {
          "internalType": "uint40",
          "name": "",
          "type": "uint40"
        }
      ],
      "stateMutability": "view",
      "type": "function",
      "constant": true
    },
    {
      "inputs": [],
      "name": "getBackupWallet",
      "outputs": [
        {
          "internalType": "address",
          "name": "",
          "type": "address"
        }
      ],
      "stateMutability": "view",
      "type": "function",
      "constant": true
    },
    {
      "inputs": [],
      "name": "getHeirs",
      "outputs": [
        {
          "internalType": "bytes32[8]",
          "name": "heirs",
          "type": "bytes32[8]"
        }
      ],
      "stateMutability": "view",
      "type": "function",
      "constant": true
    },
    {
      "inputs": [],
      "name": "getInheritanceTimeLeft",
      "outputs": [
        {
          "internalType": "uint40",
          "name": "_res",
          "type": "uint40"
        }
      ],
      "stateMutability": "view",
      "type": "function",
      "constant": true
    },
    {
      "inputs": [],
      "name": "getInheritanceTimeout",
      "outputs": [
        {
          "internalType": "uint40",
          "name": "",
          "type": "uint40"
        }
      ],
      "stateMutability": "view",
      "type": "function",
      "constant": true
    },
    {
      "inputs": [],
      "name": "getInheritanceTimestamp",
      "outputs": [
        {
          "internalType": "uint40",
          "name": "",
          "type": "uint40"
        }
      ],
      "stateMutability": "view",
      "type": "function",
      "constant": true
    },
    {
      "inputs": [],
      "name": "getOwner",
      "outputs": [
        {
          "internalType": "address",
          "name": "",
          "type": "address"
        }
      ],
      "stateMutability": "view",
      "type": "function",
      "constant": true
    },
    {
      "inputs": [],
      "name": "getTotalBPS",
      "outputs": [
        {
          "internalType": "uint256",
          "name": "total",
          "type": "uint256"
        }
      ],
      "stateMutability": "view",
      "type": "function",
      "constant": true
    },
    {
      "inputs": [],
      "name": "getTotalTransfered",
      "outputs": [
        {
          "internalType": "uint256",
          "name": "total",
          "type": "uint256"
        }
      ],
      "stateMutability": "view",
      "type": "function",
      "constant": true
    },
    {
      "inputs": [
        {
          "internalType": "address",
          "name": "__owner",
          "type": "address"
        },
        {
          "internalType": "address",
          "name": "__target",
          "type": "address"
        }
      ],
      "name": "init",
      "outputs": [],
      "stateMutability": "nonpayable",
      "type": "function"
    },
    {
      "inputs": [],
      "name": "isBackup",
      "outputs": [
        {
          "internalType": "bool",
          "name": "",
          "type": "bool"
        }
      ],
      "stateMutability": "view",
      "type": "function",
      "constant": true
    },
    {
      "inputs": [],
      "name": "isInheritanceActivated",
      "outputs": [
        {
          "internalType": "bool",
          "name": "",
          "type": "bool"
        }
      ],
      "stateMutability": "view",
      "type": "function",
      "constant": true
    },
    {
      "inputs": [],
      "name": "isInheritanceEnabled",
      "outputs": [
        {
          "internalType": "bool",
          "name": "",
          "type": "bool"
        }
      ],
      "stateMutability": "view",
      "type": "function",
      "constant": true
    },
    {
      "inputs": [],
      "name": "isOwner",
      "outputs": [
        {
          "internalType": "bool",
          "name": "",
          "type": "bool"
        }
      ],
      "stateMutability": "view",
      "type": "function",
      "constant": true
    },
    {
      "inputs": [],
      "name": "owner",
      "outputs": [
        {
          "internalType": "address",
          "name": "",
          "type": "address"
        }
      ],
      "stateMutability": "view",
      "type": "function",
      "constant": true
    },
    {
      "inputs": [],
      "name": "reclaimOwnership",
      "outputs": [],
      "stateMutability": "nonpayable",
      "type": "function"
    },
    {
      "inputs": [],
      "name": "removeBackup",
      "outputs": [],
      "stateMutability": "nonpayable",
      "type": "function"
    },
    {
      "inputs": [
        {
          "internalType": "address",
          "name": "_wallet",
          "type": "address"
        },
        {
          "internalType": "uint32",
          "name": "_timeout",
          "type": "uint32"
        }
      ],
      "name": "setBackup",
      "outputs": [],
      "stateMutability": "nonpayable",
      "type": "function"
    },
    {
      "inputs": [
        {
          "internalType": "address payable[]",
          "name": "_wallets",
          "type": "address[]"
        },
        {
          "internalType": "uint16[]",
          "name": "_bps",
          "type": "uint16[]"
        }
      ],
      "name": "setHeirs",
      "outputs": [],
      "stateMutability": "nonpayable",
      "type": "function"
    },
    {
      "inputs": [
        {
          "internalType": "uint32",
          "name": "_timeout",
          "type": "uint32"
        }
      ],
      "name": "setInheritance",
      "outputs": [],
      "stateMutability": "nonpayable",
      "type": "function"
    },
    {
      "inputs": [],
      "name": "target",
      "outputs": [
        {
          "internalType": "address",
          "name": "",
          "type": "address"
        }
      ],
      "stateMutability": "view",
      "type": "function",
      "constant": true
    },
    {
      "inputs": [
        {
          "internalType": "bytes8",
          "name": "_version",
          "type": "bytes8"
        }
      ],
      "name": "upgrade",
      "outputs": [],
      "stateMutability": "nonpayable",
      "type": "function"
    },
    {
      "inputs": [
        {
          "internalType": "address payable",
          "name": "_to",
          "type": "address"
        },
        {
          "internalType": "uint256",
          "name": "_value",
          "type": "uint256"
        }
      ],
      "name": "sendEther",
      "outputs": [],
      "stateMutability": "nonpayable",
      "type": "function"
    },
    {
      "inputs": [
        {
          "internalType": "address",
          "name": "_token",
          "type": "address"
        },
        {
          "internalType": "address",
          "name": "_to",
          "type": "address"
        },
        {
          "internalType": "uint256",
          "name": "_value",
          "type": "uint256"
        }
      ],
      "name": "transfer20",
      "outputs": [],
      "stateMutability": "nonpayable",
      "type": "function"
    },
    {
      "inputs": [
        {
          "internalType": "address",
          "name": "_token",
          "type": "address"
        },
        {
          "internalType": "address",
          "name": "_from",
          "type": "address"
        },
        {
          "internalType": "address",
          "name": "_to",
          "type": "address"
        },
        {
          "internalType": "uint256",
          "name": "_value",
          "type": "uint256"
        }
      ],
      "name": "transferFrom20",
      "outputs": [],
      "stateMutability": "nonpayable",
      "type": "function"
    },
    {
      "inputs": [
        {
          "internalType": "address",
          "name": "_token",
          "type": "address"
        },
        {
          "internalType": "address",
          "name": "_to",
          "type": "address"
        },
        {
          "internalType": "uint256",
          "name": "_value",
          "type": "uint256"
        }
      ],
      "name": "transfer721",
      "outputs": [],
      "stateMutability": "nonpayable",
      "type": "function"
    },
    {
      "inputs": [
        {
          "internalType": "address",
          "name": "_token",
          "type": "address"
        },
        {
          "internalType": "address",
          "name": "_from",
          "type": "address"
        },
        {
          "internalType": "address",
          "name": "_to",
          "type": "address"
        },
        {
          "internalType": "uint256",
          "name": "_id",
          "type": "uint256"
        }
      ],
      "name": "transferFrom721",
      "outputs": [],
      "stateMutability": "nonpayable",
      "type": "function"
    },
    {
      "inputs": [
        {
          "internalType": "address",
          "name": "_token",
          "type": "address"
        },
        {
          "internalType": "address",
          "name": "_from",
          "type": "address"
        },
        {
          "internalType": "address",
          "name": "_to",
          "type": "address"
        },
        {
          "internalType": "uint256",
          "name": "_id",
          "type": "uint256"
        }
      ],
      "name": "safeTransferFrom721",
      "outputs": [],
      "stateMutability": "nonpayable",
      "type": "function"
    },
    {
      "inputs": [
        {
          "internalType": "address",
          "name": "_token",
          "type": "address"
        },
        {
          "internalType": "address",
          "name": "_from",
          "type": "address"
        },
        {
          "internalType": "address",
          "name": "_to",
          "type": "address"
        },
        {
          "internalType": "uint256",
          "name": "_id",
          "type": "uint256"
        },
        {
          "internalType": "bytes",
          "name": "_data",
          "type": "bytes"
        }
      ],
      "name": "safeTransferFrom721$Data",
      "outputs": [],
      "stateMutability": "nonpayable",
      "type": "function"
    },
    {
      "inputs": [],
      "name": "getBalance",
      "outputs": [
        {
          "internalType": "uint256",
          "name": "",
          "type": "uint256"
        }
      ],
      "stateMutability": "view",
      "type": "function",
      "constant": true
    },
    {
      "inputs": [
        {
          "internalType": "address",
          "name": "_token",
          "type": "address"
        }
      ],
      "name": "balanceOf20",
      "outputs": [
        {
          "internalType": "uint256",
          "name": "",
          "type": "uint256"
        }
      ],
      "stateMutability": "view",
      "type": "function",
      "constant": true
    },
    {
      "inputs": [
        {
          "internalType": "address",
          "name": "_token",
          "type": "address"
        }
      ],
      "name": "balanceOf721",
      "outputs": [
        {
          "internalType": "uint256",
          "name": "",
          "type": "uint256"
        }
      ],
      "stateMutability": "view",
      "type": "function",
      "constant": true
    },
    {
      "inputs": [
        {
          "internalType": "address",
          "name": "_token",
          "type": "address"
        }
      ],
      "name": "is20Safe",
      "outputs": [
        {
          "internalType": "bool",
          "name": "",
          "type": "bool"
        }
      ],
      "stateMutability": "view",
      "type": "function",
      "constant": true
    },
    {
      "inputs": [
        {
          "internalType": "address",
          "name": "_token",
          "type": "address"
        }
      ],
      "name": "is721Safe",
      "outputs": [
        {
          "internalType": "bool",
          "name": "",
          "type": "bool"
        }
      ],
      "stateMutability": "view",
      "type": "function",
      "constant": true
    },
    {
      "inputs": [
        {
          "internalType": "address",
          "name": "",
          "type": "address"
        },
        {
          "internalType": "address",
          "name": "",
          "type": "address"
        },
        {
          "internalType": "uint256",
          "name": "",
          "type": "uint256"
        },
        {
          "internalType": "bytes",
          "name": "",
          "type": "bytes"
        }
      ],
      "name": "onERC721Received",
      "outputs": [
        {
          "internalType": "bytes4",
          "name": "",
          "type": "bytes4"
        }
      ],
      "stateMutability": "pure",
      "type": "function",
      "constant": true
    },
    {
      "inputs": [],
      "name": "migrate",
      "outputs": [],
      "stateMutability": "nonpayable",
      "type": "function"
    },
    {
      "inputs": [],
      "name": "version",
      "outputs": [
        {
          "internalType": "bytes8",
          "name": "",
          "type": "bytes8"
        }
      ],
      "stateMutability": "pure",
      "type": "function",
      "constant": true
    }
  ],
  "bytecode": "0x608060405234801561001057600080fd5b50600080546001600160a01b03191633179055614b94806100326000396000f3fe608060405234801561001057600080fd5b506004361061034b5760003560e01c80638da5cb5b116101bd578063c572f15d116100f9578063e520d104116100a2578063f808a3091161007c578063f808a30914610a3e578063f99ff3e814610a46578063fdafd4eb14610a4e578063fec5a18d14610a565761034b565b8063e520d104146108e1578063e767e13714610a08578063f09a401614610a105761034b565b8063dfc07588116100d3578063dfc07588146108b3578063e1bc35ab146108d9578063e2e1d83b146106c15761034b565b8063c572f15d1461089b578063cd7dbf4a146108a3578063d4b83992146108ab5761034b565b8063a05a439611610166578063af1fd6f811610140578063af1fd6f814610823578063b9b3abe01461082b578063c1756a2c14610867578063c1c8277f146108935761034b565b8063a05a439614610745578063a3907d7114610813578063ab0401071461081b5761034b565b8063916b07de11610197578063916b07de146106ff5780639db652f4146107355780639e091e871461073d5761034b565b80638da5cb5b146106e75780638f32d59b146106ef5780638fd3ab80146106f75761034b565b806336d62d401161028c5780634eae51f41161023557806354fd4d501161020f57806354fd4d501461066a5780637396f1891461068f5780637db683ee146106c1578063893d20e8146106e75761034b565b80634eae51f4146105e05780634f60c5221461062157806350ea2297146106475761034b565b8063447046bf11610266578063447046bf146105c857806349629f08146105d05780634e71e0c8146105d85761034b565b806336d62d401461059a5780633d562561146105a25780633e95e62c146105c05761034b565b8063150b7a02116102f95780632852b71c116102d35780632852b71c1461054c5780632a5dc72a146105545780632beac3bc1461055c5780632e262542146105925761034b565b8063150b7a021461040d57806318f9c69014610508578063283faec7146105105761034b565b80630ca9dcca1161032a5780630ca9dcca146103af57806312065fe0146103eb578063120e860c146104055761034b565b806253d7b01461034d57806302d05d3f1461036f57806303c01e6814610393575b005b610355610a7d565b6040805164ffffffffff9092168252519081900360200190f35b610377610a91565b604080516001600160a01b039092168252519081900360200190f35b61039b610a96565b604080519115158252519081900360200190f35b61034b600480360360808110156103c557600080fd5b506001600160a01b03813581169160208101358216916040820135169060600135610aa7565b6103f3610d22565b60408051918252519081900360200190f35b61034b610d26565b6104d36004803603608081101561042357600080fd5b6001600160a01b0382358116926020810135909116916040820135919081019060808101606082013564010000000081111561045e57600080fd5b82018360208201111561047057600080fd5b8035906020019184600183028401116401000000008311171561049257600080fd5b91908080601f016020809104026020016040519081016040528093929190818152602001838380828437600092019190915250929550611224945050505050565b604080517fffffffff000000000000000000000000000000000000000000000000000000009092168252519081900360200190f35b610355611234565b61034b6004803603608081101561052657600080fd5b506001600160a01b03813581169160208101358216916040820135169060600135611247565b61034b6114a3565b6103f3611615565b61034b6004803603606081101561057257600080fd5b506001600160a01b0381358116916020810135909116906040013561161b565b61034b611884565b6103f3611ac5565b6105aa611b22565b6040805160ff9092168252519081900360200190f35b6105aa611b27565b610377611b2c565b61034b611b3b565b61034b6121bd565b6105e8612475565b604051808261010080838360005b8381101561060e5781810151838201526020016105f6565b5050505090500191505060405180910390f35b61039b6004803603602081101561063757600080fd5b50356001600160a01b031661251e565b61034b6004803603602081101561065d57600080fd5b503563ffffffff1661266f565b6106726128de565b604080516001600160c01b03199092168252519081900360200190f35b61034b600480360360408110156106a557600080fd5b5080356001600160a01b0316906020013563ffffffff166128ea565b6103f3600480360360208110156106d757600080fd5b50356001600160a01b0316612dcf565b610377612e19565b61039b612e28565b61034b612e39565b61034b6004803603606081101561071557600080fd5b506001600160a01b03813581169160208101359091169060400135612ee8565b610355612fc7565b610355612fdb565b61034b600480360360a081101561075b57600080fd5b6001600160a01b03823581169260208101358216926040820135909216916060820135919081019060a08101608082013564010000000081111561079e57600080fd5b8201836020820111156107b057600080fd5b803590602001918460018302840111640100000000831117156107d257600080fd5b91908080601f01602080910402602001604051908101604052809392919081815260200183838082843760009201919091525092955061305f945050505050565b61034b6133b3565b61034b61358f565b610355613637565b61034b6004803603608081101561084157600080fd5b506001600160a01b03813581169160208101358216916040820135169060600135613644565b61034b6004803603604081101561087d57600080fd5b506001600160a01b0381351690602001356138c6565b61034b613b0a565b610355613c87565b61039b613d22565b610377613d39565b61039b600480360360208110156108c957600080fd5b50356001600160a01b0316613d48565b6105aa613e67565b61034b600480360360408110156108f757600080fd5b81019060208101813564010000000081111561091257600080fd5b82018360208201111561092457600080fd5b8035906020019184602083028401116401000000008311171561094657600080fd5b919080806020026020016040519081016040528093929190818152602001838360200280828437600092019190915250929594936020810193503591505064010000000081111561099657600080fd5b8201836020820111156109a857600080fd5b803590602001918460208302840111640100000000831117156109ca57600080fd5b919080806020026020016040519081016040528093929190818152602001838360200280828437600092019190915250929550613e6c945050505050565b61034b614521565b61034b60048036036040811015610a2657600080fd5b506001600160a01b03813581169160200135166145bc565b6105aa6146fd565b6105aa61470d565b61039b614712565b61034b60048036036020811015610a6c57600080fd5b50356001600160c01b031916614727565b600c54600160381b900464ffffffffff1690565b600090565b6002546001600160a01b0316331490565b306001600160a01b0316638da5cb5b6040518163ffffffff1660e01b815260040160206040518083038186803b158015610ae057600080fd5b505afa158015610af4573d6000803e3d6000fd5b505050506040513d6020811015610b0a57600080fd5b50516001600160a01b031633148015610b305750600254600160e81b900460ff16600314155b610b74576040805162461bcd60e51b815260206004820152601060248201526f3737ba1030b1ba34bb329037bbb732b960811b604482015290519081900360640190fd5b6001600160a01b038416610bbf576040805162461bcd60e51b815260206004820152600d60248201526c05f746f6b656e2069732030783609c1b604482015290519081900360640190fd5b60006001600160a01b03841615610bd65783610bd8565b305b9050826001600160a01b0316856001600160a01b0316306001600160a01b03166302d05d3f6040518163ffffffff1660e01b815260040160206040518083038186803b158015610c2757600080fd5b505afa158015610c3b573d6000803e3d6000fd5b505050506040513d6020811015610c5157600080fd5b5051604080516001600160a01b038681168252602082018890526060828401819052600090830152915191909216917fc604e07085b3abf38e6f3918d5247f94fdde3c9b2ad1dbf93421ae055c34d823919081900360a00190a4604080516323b872dd60e01b81523060048201526001600160a01b038581166024830152604482018590529151918716916323b872dd9160648082019260009290919082900301818387803b158015610d0357600080fd5b505af1158015610d17573d6000803e3d6000fd5b505050505050505050565b4790565b60028054600160e81b900460ff1614610d86576040805162461bcd60e51b815260206004820152601260248201527f6261636b7570206e6f7420656e61626c65640000000000000000000000000000604482015290519081900360640190fd5b6002546001600160a01b0316610dd6576040805162461bcd60e51b815260206004820152601060248201526f189858dadd5c081b9bdd08195e1a5cdd60821b604482015290519081900360640190fd5b610dde613c87565b64ffffffffff1615610e23576040805162461bcd60e51b8152602060048201526009602482015268746f6f206561726c7960b81b604482015290519081900360640190fd5b600254600160e81b900460ff16600314610e4b576002805460ff60e81b1916600360e81b1790555b600254604080516302d05d3f60e01b8152905133926001600160a01b03169130916302d05d3f91600480820192602092909190829003018186803b158015610e9257600080fd5b505afa158015610ea6573d6000803e3d6000fd5b505050506040513d6020811015610ebc57600080fd5b505160025460408051600160e81b90920460ff168252516001600160a01b03909216917fd4e12feccfc0af60abe3d9f07eaf999abd3329b4570bf80fdb4d5019f7f823d8916020908290030190a460004790506000306001600160a01b03166302d05d3f6040518163ffffffff1660e01b815260040160206040518083038186803b158015610f4a57600080fd5b505afa158015610f5e573d6000803e3d6000fd5b505050506040513d6020811015610f7457600080fd5b5051604080516307dc0d1d60e41b815290516001600160a01b0390921691637dc0d1d091600480820192602092909190829003018186803b158015610fb857600080fd5b505afa158015610fcc573d6000803e3d6000fd5b505050506040513d6020811015610fe257600080fd5b50516040805163319a11df60e11b815290516001600160a01b039092169163633423be91600480820192602092909190829003018186803b15801561102657600080fd5b505afa15801561103a573d6000803e3d6000fd5b505050506040513d602081101561105057600080fd5b50516040519091506001600160a01b038216906064840480156108fc02916000818181858888f193505050501561113857806001600160a01b0316306001600160a01b03166302d05d3f6040518163ffffffff1660e01b815260040160206040518083038186803b1580156110c457600080fd5b505afa1580156110d8573d6000803e3d6000fd5b505050506040513d60208110156110ee57600080fd5b50516001600160a01b03167f6e66b5d043b2434fe7d48f9b96e07c1fa4d6c6a7d7ac43fc1afc30267b36869860648560408051929091048252600060208301528051918290030190a35b60405133906103e8840480156108fc02916000818181858888f19350505050158015611168573d6000803e3d6000fd5b50336001600160a01b0316306001600160a01b03166302d05d3f6040518163ffffffff1660e01b815260040160206040518083038186803b1580156111ac57600080fd5b505afa1580156111c0573d6000803e3d6000fd5b505050506040513d60208110156111d657600080fd5b50516001600160a01b03167f6e66b5d043b2434fe7d48f9b96e07c1fa4d6c6a7d7ac43fc1afc30267b3686986103e88560408051929091048252600160208301528051918290030190a35050565b630a85bd0160e11b949350505050565b600254600160c81b900463ffffffff1690565b306001600160a01b0316638da5cb5b6040518163ffffffff1660e01b815260040160206040518083038186803b15801561128057600080fd5b505afa158015611294573d6000803e3d6000fd5b505050506040513d60208110156112aa57600080fd5b50516001600160a01b0316331480156112d05750600254600160e81b900460ff16600314155b611314576040805162461bcd60e51b815260206004820152601060248201526f3737ba1030b1ba34bb329037bbb732b960811b604482015290519081900360640190fd5b6001600160a01b03841661135f576040805162461bcd60e51b815260206004820152600d60248201526c05f746f6b656e2069732030783609c1b604482015290519081900360640190fd5b60006001600160a01b038416156113765783611378565b305b9050826001600160a01b0316856001600160a01b0316306001600160a01b03166302d05d3f6040518163ffffffff1660e01b815260040160206040518083038186803b1580156113c757600080fd5b505afa1580156113db573d6000803e3d6000fd5b505050506040513d60208110156113f157600080fd5b5051604080516001600160a01b038681168252602082018890526060828401819052600090830152915191909216917fc604e07085b3abf38e6f3918d5247f94fdde3c9b2ad1dbf93421ae055c34d823919081900360a00190a460408051632142170760e11b81523060048201526001600160a01b038581166024830152604482018590529151918716916342842e0e9160648082019260009290919082900301818387803b158015610d0357600080fd5b6002546001600160a01b031633146114ef576040805162461bcd60e51b815260206004820152600a60248201526906e6f74206261636b75760b41b604482015290519081900360640190fd5b600254600160e81b900460ff1615611543576040805162461bcd60e51b81526020600482015260126024820152716261636b7570206e6f742070656e64696e6760701b604482015290519081900360640190fd5b6002805460ff60e81b1916600160e81b1790819055604080516302d05d3f60e01b815290516001600160a01b039092169130916302d05d3f916004808301926020929190829003018186803b15801561159b57600080fd5b505afa1580156115af573d6000803e3d6000fd5b505050506040513d60208110156115c557600080fd5b505160025460408051600160e81b90920460ff168252516001600160a01b03909216917f9b13e751ba276b9ecf994e9ecc38b895af7cded05c07f20e506f4a57f98dc3d3916020908290030190a3565b60035490565b306001600160a01b0316638da5cb5b6040518163ffffffff1660e01b815260040160206040518083038186803b15801561165457600080fd5b505afa158015611668573d6000803e3d6000fd5b505050506040513d602081101561167e57600080fd5b50516001600160a01b0316331480156116a45750600254600160e81b900460ff16600314155b6116e8576040805162461bcd60e51b815260206004820152601060248201526f3737ba1030b1ba34bb329037bbb732b960811b604482015290519081900360640190fd5b6001600160a01b038316611733576040805162461bcd60e51b815260206004820152600d60248201526c05f746f6b656e2069732030783609c1b604482015290519081900360640190fd5b816001600160a01b0316836001600160a01b0316306001600160a01b03166302d05d3f6040518163ffffffff1660e01b815260040160206040518083038186803b15801561178057600080fd5b505afa158015611794573d6000803e3d6000fd5b505050506040513d60208110156117aa57600080fd5b5051604080513081526020810186905281516001600160a01b03909316927fd3c84574047e20dd5aac4c7a9e0b36668586ab67fae246b0259385a8d68ff832929181900390910190a4826001600160a01b031663a9059cbb83836040518363ffffffff1660e01b815260040180836001600160a01b03166001600160a01b0316815260200182815260200192505050602060405180830381600087803b15801561185357600080fd5b505af1158015611867573d6000803e3d6000fd5b505050506040513d602081101561187d57600080fd5b5050505050565b306001600160a01b0316638da5cb5b6040518163ffffffff1660e01b815260040160206040518083038186803b1580156118bd57600080fd5b505afa1580156118d1573d6000803e3d6000fd5b505050506040513d60208110156118e757600080fd5b50516001600160a01b03163314801561190d5750600254600160e81b900460ff16600314155b611951576040805162461bcd60e51b815260206004820152601060248201526f3737ba1030b1ba34bb329037bbb732b960811b604482015290519081900360640190fd5b336001600160a01b0316306001600160a01b03166302d05d3f6040518163ffffffff1660e01b815260040160206040518083038186803b15801561199457600080fd5b505afa1580156119a8573d6000803e3d6000fd5b505050506040513d60208110156119be57600080fd5b50516040516001600160a01b03909116907f386ee292f5f7e1923094e3f15e2c182b0ffaa3b312df32094e994d8e0f1d393a90600090a3600c5464ffffffffff1615611a1357600c805464ffffffffff191690555b600c5465010000000000900460ff1615611a3757600c805465ff0000000000191690555b600c54600160301b900460ff1615611a5a57600c805466ff000000000000191690555b60035415611a685760006003555b60005b6008811015611ac257600060048260088110611a8357fe5b0180549091506001600160a01b0316611a9c5750611ac2565b8054600160a01b900460ff1615611ab957805460ff60a01b191681555b50600101611a6b565b50565b6000805b6008811015611b1e57600060048260088110611ae157fe5b01546001600160a01b03161415611af757611b1e565b60048160088110611b0457fe5b0154600160a81b900461ffff169190910190600101611ac9565b5090565b600181565b600381565b6002546001600160a01b031690565b600c5465010000000000900460ff161515600114611ba0576040805162461bcd60e51b815260206004820152601a60248201527f696e6865726974616e6365206973206e6f7420656e61626c6564000000000000604482015290519081900360640190fd5b600c54600160301b900460ff1615611bff576040805162461bcd60e51b815260206004820152601860248201527f696e6865726974616e6365206973206163746976617465640000000000000000604482015290519081900360640190fd5b611c07612fdb565b64ffffffffff1615611c4c576040805162461bcd60e51b8152602060048201526009602482015268746f6f206561726c7960b81b604482015290519081900360640190fd5b600c805466ff0000000000001916600160301b179055604080516302d05d3f60e01b81529051479160009130916302d05d3f916004828101926020929190829003018186803b158015611c9e57600080fd5b505afa158015611cb2573d6000803e3d6000fd5b505050506040513d6020811015611cc857600080fd5b5051604080516307dc0d1d60e41b815290516001600160a01b0390921691637dc0d1d091600480820192602092909190829003018186803b158015611d0c57600080fd5b505afa158015611d20573d6000803e3d6000fd5b505050506040513d6020811015611d3657600080fd5b50516040805163319a11df60e11b815290516001600160a01b039092169163633423be91600480820192602092909190829003018186803b158015611d7a57600080fd5b505afa158015611d8e573d6000803e3d6000fd5b505050506040513d6020811015611da457600080fd5b50516040519091506001600160a01b038216906064840480156108fc02916000818181858888f1935050505015611e8c57806001600160a01b0316306001600160a01b03166302d05d3f6040518163ffffffff1660e01b815260040160206040518083038186803b158015611e1857600080fd5b505afa158015611e2c573d6000803e3d6000fd5b505050506040513d6020811015611e4257600080fd5b50516001600160a01b03167f0d0176dbbceb582bb24dc965bd866421e9de5afe8bb827dc2a48df2826ad40fd60648560408051929091048252600060208301528051918290030190a35b60405133906103e8840480156108fc02916000818181858888f19350505050158015611ebc573d6000803e3d6000fd5b50336001600160a01b0316306001600160a01b03166302d05d3f6040518163ffffffff1660e01b815260040160206040518083038186803b158015611f0057600080fd5b505afa158015611f14573d6000803e3d6000fd5b505050506040513d6020811015611f2a57600080fd5b50516001600160a01b03167f0d0176dbbceb582bb24dc965bd866421e9de5afe8bb827dc2a48df2826ad40fd6103e88560408051929091048252600160208301528051918290030190a347915060005b600881101561201757600060048260088110611f9257fe5b0180549091506001600160a01b0316611fab5750612017565b8054600160a81b900461ffff161561200e5780546040516001600160a01b0382169161271061ffff600160a81b9092049190911687020480156108fc02916000818181858888f18554901515600160a01b0260ff60a01b19909116178555505050505b50600101611f7a565b612027834763ffffffff61483e16565b60035560608167ffffffffffffffff8111801561204357600080fd5b5060405190808252806020026020018201604052801561206d578160200160208202803683370190505b50905060005b828110156120c95760006004826008811061208a57fe5b01805484519192506001600160a01b0316908490849081106120a857fe5b6001600160a01b039092166020928302919091019091015250600101612073565b50336001600160a01b0316306001600160a01b03166302d05d3f6040518163ffffffff1660e01b815260040160206040518083038186803b15801561210d57600080fd5b505afa158015612121573d6000803e3d6000fd5b505050506040513d602081101561213757600080fd5b505160408051602080825285518282015285516001600160a01b03909416937f7ad28155b9b8629f2cd82bb7d184fbd7726696408380767a0cf3ef763209da8a93879392839291830191858201910280838360005b838110156121a457818101518382015260200161218c565b505050509050019250505060405180910390a350505050565b6002546001600160a01b03163314612209576040805162461bcd60e51b815260206004820152600a60248201526906e6f74206261636b75760b41b604482015290519081900360640190fd5b600254600160e81b900460ff16600314612261576040805162461bcd60e51b8152602060048201526014602482015273189858dadd5c081b9bdd081858dd1a5d985d195960621b604482015290519081900360640190fd5b6002805460ff60e81b198116909155600054604080516302d05d3f60e01b815290516001600160a01b03938416939092169130916302d05d3f916004808301926020929190829003018186803b1580156122ba57600080fd5b505afa1580156122ce573d6000803e3d6000fd5b505050506040513d60208110156122e457600080fd5b505160025460408051600160e81b90920460ff168252516001600160a01b03909216917fa477fcc649c392c3ab5443bd6c7e532261a90d5e3f29376513d5275e277ddae3916020908290030190a46002546000546001600160a01b0390811691161461241657306001600160a01b03166302d05d3f6040518163ffffffff1660e01b815260040160206040518083038186803b15801561238357600080fd5b505afa158015612397573d6000803e3d6000fd5b505050506040513d60208110156123ad57600080fd5b50516002546040805163bf3b110160e01b81526001600160a01b0392831660048201529051919092169163bf3b110191602480830192600092919082900301818387803b1580156123fd57600080fd5b505af1158015612411573d6000803e3d6000fd5b505050505b600280546001600160a01b03191690819055600160c81b900463ffffffff161561244b576002805463ffffffff60c81b191690555b600254600160a01b900464ffffffffff1615612473576002805464ffffffffff60a01b191690555b565b61247d614b3f565b60005b6008811015611b1e5760006004826008811061249857fe5b0180549091506001600160a01b03166124b15750611b1e565b8054600160a81b810460481b6affff0000000000000000001690600160a01b900460ff166124e05760006124ee565b6b0100000000000000000000005b825460601b6bffffffffffffffffffffffff1916010183836008811061251057fe5b602002015250600101612480565b6000306001600160a01b03166302d05d3f6040518163ffffffff1660e01b815260040160206040518083038186803b15801561255957600080fd5b505afa15801561256d573d6000803e3d6000fd5b505050506040513d602081101561258357600080fd5b5051604080516307dc0d1d60e41b815290516001600160a01b0390921691637dc0d1d091600480820192602092909190829003018186803b1580156125c757600080fd5b505afa1580156125db573d6000803e3d6000fd5b505050506040513d60208110156125f157600080fd5b5051604080516327b0629160e11b81526001600160a01b03858116600483015291519190921691634f60c522916024808301926020929190829003018186803b15801561263d57600080fd5b505afa158015612651573d6000803e3d6000fd5b505050506040513d602081101561266757600080fd5b505192915050565b306001600160a01b0316638da5cb5b6040518163ffffffff1660e01b815260040160206040518083038186803b1580156126a857600080fd5b505afa1580156126bc573d6000803e3d6000fd5b505050506040513d60208110156126d257600080fd5b50516001600160a01b0316331480156126f85750600254600160e81b900460ff16600314155b61273c576040805162461bcd60e51b815260206004820152601060248201526f3737ba1030b1ba34bb329037bbb732b960811b604482015290519081900360640190fd5b600c54600160301b900460ff1615612793576040805162461bcd60e51b81526020600482015260156024820152741a5b9a195c9a5d185b98d9481858dd1a5d985d1959605a1b604482015290519081900360640190fd5b600061279d614887565b600c5490915064ffffffffff1663ffffffff8316146127cd57600c805464ffffffffff191663ffffffff84161790555b600c5465010000000000900460ff1615156001146127fd57600c805465ff00000000001916650100000000001790555b600c80546bffffffffff000000000000001916600160381b64ffffffffff841602179055604080516302d05d3f60e01b81529051339130916302d05d3f91600480820192602092909190829003018186803b15801561285b57600080fd5b505afa15801561286f573d6000803e3d6000fd5b505050506040513d602081101561288557600080fd5b50516040805163ffffffff8616815264ffffffffff8516602082015281516001600160a01b03909316927f219376dc9430460f83af8f607e5c09085e95b4d8096b01b231afc1ee7958d5e2929181900390910190a35050565b64312e322e3160d81b90565b306001600160a01b0316638da5cb5b6040518163ffffffff1660e01b815260040160206040518083038186803b15801561292357600080fd5b505afa158015612937573d6000803e3d6000fd5b505050506040513d602081101561294d57600080fd5b50516001600160a01b0316331480156129735750600254600160e81b900460ff16600314155b6129b7576040805162461bcd60e51b815260206004820152601060248201526f3737ba1030b1ba34bb329037bbb732b960811b604482015290519081900360640190fd5b6001600160a01b0382166129fe576040805162461bcd60e51b815260206004820152600960248201526806e6f206261636b75760bc1b604482015290519081900360640190fd5b6000546001600160a01b0383811691161415612a53576040805162461bcd60e51b815260206004820152600f60248201526e3130b1b5bab81034b99037bbb732b960891b604482015290519081900360640190fd5b6002546001600160a01b03838116911614612c70576002546001600160a01b031615612b4557306001600160a01b03166302d05d3f6040518163ffffffff1660e01b815260040160206040518083038186803b158015612ab257600080fd5b505afa158015612ac6573d6000803e3d6000fd5b505050506040513d6020811015612adc57600080fd5b50516002546040805163cf2f774160e01b81526001600160a01b0392831660048201529051919092169163cf2f774191602480830192600092919082900301818387803b158015612b2c57600080fd5b505af1158015612b40573d6000803e3d6000fd5b505050505b600280546001600160a01b0319166001600160a01b038416179055604080516302d05d3f60e01b8152905130916302d05d3f916004808301926020929190829003018186803b158015612b9757600080fd5b505afa158015612bab573d6000803e3d6000fd5b505050506040513d6020811015612bc157600080fd5b50516040805163a196de8360e01b81526001600160a01b0385811660048301529151919092169163a196de8391602480830192600092919082900301818387803b158015612c0e57600080fd5b505af1158015612c22573d6000803e3d6000fd5b5050600254600160e81b900460ff16159150612c489050576002805460ff60e81b191690555b600254600160a01b900464ffffffffff1615612c70576002805464ffffffffff60a01b191690555b60025463ffffffff828116600160c81b9092041614612ca8576002805463ffffffff60c81b1916600160c81b63ffffffff8416021790555b60028054600160e81b900460ff161415612cec57612cc4614887565b6002805464ffffffffff92909216600160a01b0264ffffffffff60a01b199092169190911790555b600054604080516302d05d3f60e01b815290516001600160a01b0380861693169130916302d05d3f91600480820192602092909190829003018186803b158015612d3557600080fd5b505afa158015612d49573d6000803e3d6000fd5b505050506040513d6020811015612d5f57600080fd5b50516002546040805163ffffffff87168152600160a01b830464ffffffffff166020820152600160e81b90920460ff1682820152516001600160a01b03909216917fea8790173f54c9b092a2e436f8aa3840b46da469df3b5161893625d09bfc54e5916060908290030190a45050565b604080516370a0823160e01b815230600482015290516000916001600160a01b038416916370a0823191602480820192602092909190829003018186803b15801561263d57600080fd5b6000546001600160a01b031690565b6000546001600160a01b0316331490565b306001600160a01b03166302d05d3f6040518163ffffffff1660e01b815260040160206040518083038186803b158015612e7257600080fd5b505afa158015612e86573d6000803e3d6000fd5b505050506040513d6020811015612e9c57600080fd5b50516001600160a01b03163314612473576040805162461bcd60e51b815260206004820152600b60248201526a3737ba1031b932b0ba37b960a91b604482015290519081900360640190fd5b306001600160a01b0316638da5cb5b6040518163ffffffff1660e01b815260040160206040518083038186803b158015612f2157600080fd5b505afa158015612f35573d6000803e3d6000fd5b505050506040513d6020811015612f4b57600080fd5b50516001600160a01b031633148015612f715750600254600160e81b900460ff16600314155b612fb5576040805162461bcd60e51b815260206004820152601060248201526f3737ba1030b1ba34bb329037bbb732b960811b604482015290519081900360640190fd5b612fc28360008484610aa7565b505050565b600254600160a01b900464ffffffffff1690565b600080612fe6614887565b600c54909150600160381b900464ffffffffff161580159061301c5750600c5464ffffffffff600160381b909104811690821610155b801561303d5750600c5464ffffffffff600160381b82048116830381169116115b15611b1e57600c5464ffffffffff600160381b82048116830391160391505090565b306001600160a01b0316638da5cb5b6040518163ffffffff1660e01b815260040160206040518083038186803b15801561309857600080fd5b505afa1580156130ac573d6000803e3d6000fd5b505050506040513d60208110156130c257600080fd5b50516001600160a01b0316331480156130e85750600254600160e81b900460ff16600314155b61312c576040805162461bcd60e51b815260206004820152601060248201526f3737ba1030b1ba34bb329037bbb732b960811b604482015290519081900360640190fd5b6001600160a01b038516613177576040805162461bcd60e51b815260206004820152600d60248201526c05f746f6b656e2069732030783609c1b604482015290519081900360640190fd5b60006001600160a01b0385161561318e5784613190565b305b9050836001600160a01b0316866001600160a01b0316306001600160a01b03166302d05d3f6040518163ffffffff1660e01b815260040160206040518083038186803b1580156131df57600080fd5b505afa1580156131f3573d6000803e3d6000fd5b505050506040513d602081101561320957600080fd5b5051604080516001600160a01b03868116825260208281018a90526060938301848152895194840194909452885191909416937fc604e07085b3abf38e6f3918d5247f94fdde3c9b2ad1dbf93421ae055c34d8239388938b938b9391929160808401919085019080838360005b8381101561328e578181015183820152602001613276565b50505050905090810190601f1680156132bb5780820380516001836020036101000a031916815260200191505b5094505050505060405180910390a4604051635c46a7ef60e11b815230600482018181526001600160a01b03878116602485015260448401879052608060648501908152865160848601528651918b169463b88d4fde94938a938a938a93909160a490910190602085019080838360005b8381101561334457818101518382015260200161332c565b50505050905090810190601f1680156133715780820380516001836020036101000a031916815260200191505b5095505050505050600060405180830381600087803b15801561339357600080fd5b505af11580156133a7573d6000803e3d6000fd5b50505050505050505050565b6000546001600160a01b03163314806133d657506002546001600160a01b031633145b613427576040805162461bcd60e51b815260206004820152601860248201527f6e656974686572206f776e6572206e6f72206261636b75700000000000000000604482015290519081900360640190fd5b600254600160e81b900460ff16600114613488576040805162461bcd60e51b815260206004820152601560248201527f6261636b7570206e6f7420726567697374657265640000000000000000000000604482015290519081900360640190fd5b6000613492614887565b6002805460ff60e81b1916600160e91b1764ffffffffff60a01b1916600160a01b64ffffffffff8416021790819055604080516302d05d3f60e01b815290519293506001600160a01b039091169130916302d05d3f916004808301926020929190829003018186803b15801561350757600080fd5b505afa15801561351b573d6000803e3d6000fd5b505050506040513d602081101561353157600080fd5b50516002546040805164ffffffffff86168152600160e81b90920460ff16602083015280516001600160a01b03909316927f6108265a31b1c1ca2c7f424e7e33437d70ea2dbefdd8ee475060d1bdd0a85bf39281900390910190a350565b6002546001600160a01b031633146135db576040805162461bcd60e51b815260206004820152600a60248201526906e6f74206261636b75760b41b604482015290519081900360640190fd5b600254600160e81b900460ff161561362f576040805162461bcd60e51b81526020600482015260126024820152716261636b7570206e6f742070656e64696e6760701b604482015290519081900360640190fd5b61247361488b565b600c5464ffffffffff1690565b306001600160a01b0316638da5cb5b6040518163ffffffff1660e01b815260040160206040518083038186803b15801561367d57600080fd5b505afa158015613691573d6000803e3d6000fd5b505050506040513d60208110156136a757600080fd5b50516001600160a01b0316331480156136cd5750600254600160e81b900460ff16600314155b613711576040805162461bcd60e51b815260206004820152601060248201526f3737ba1030b1ba34bb329037bbb732b960811b604482015290519081900360640190fd5b6001600160a01b03841661375c576040805162461bcd60e51b815260206004820152600d60248201526c05f746f6b656e2069732030783609c1b604482015290519081900360640190fd5b60006001600160a01b038416156137735783613775565b305b9050826001600160a01b0316856001600160a01b0316306001600160a01b03166302d05d3f6040518163ffffffff1660e01b815260040160206040518083038186803b1580156137c457600080fd5b505afa1580156137d8573d6000803e3d6000fd5b505050506040513d60208110156137ee57600080fd5b5051604080516001600160a01b0386811682526020820188905282519316927fd3c84574047e20dd5aac4c7a9e0b36668586ab67fae246b0259385a8d68ff832929181900390910190a4604080516323b872dd60e01b81526001600160a01b0386811660048301528581166024830152604482018590529151918716916323b872dd916064808201926020929091908290030181600087803b15801561389357600080fd5b505af11580156138a7573d6000803e3d6000fd5b505050506040513d60208110156138bd57600080fd5b50505050505050565b306001600160a01b0316638da5cb5b6040518163ffffffff1660e01b815260040160206040518083038186803b1580156138ff57600080fd5b505afa158015613913573d6000803e3d6000fd5b505050506040513d602081101561392957600080fd5b50516001600160a01b03163314801561394f5750600254600160e81b900460ff16600314155b613993576040805162461bcd60e51b815260206004820152601060248201526f3737ba1030b1ba34bb329037bbb732b960811b604482015290519081900360640190fd5b600081116139d5576040805162461bcd60e51b815260206004820152600a602482015269076616c7565203d3d20360b41b604482015290519081900360640190fd5b47811115613a1c576040805162461bcd60e51b815260206004820152600f60248201526e76616c7565203e2062616c616e636560881b604482015290519081900360640190fd5b816001600160a01b0316306001600160a01b0316306001600160a01b03166302d05d3f6040518163ffffffff1660e01b815260040160206040518083038186803b158015613a6957600080fd5b505afa158015613a7d573d6000803e3d6000fd5b505050506040513d6020811015613a9357600080fd5b50516040805185815290516001600160a01b03909216917f3be46aed611cf5224bae34b9b31732c6f1ea767507681489b72839b6425b9e3a9181900360200190a46040516001600160a01b0383169082156108fc029083906000818181858888f19350505050158015612fc2573d6000803e3d6000fd5b6000546001600160a01b03163314613b55576040805162461bcd60e51b81526020600482015260096024820152683737ba1037bbb732b960b91b604482015290519081900360640190fd5b600254600160e81b900460ff16600314613bad576040805162461bcd60e51b8152602060048201526014602482015273189858dadd5c081b9bdd081858dd1a5d985d195960621b604482015290519081900360640190fd5b6002805460ff60e81b1916600160e81b1790819055600054604080516302d05d3f60e01b815290516001600160a01b0393841693929092169130916302d05d3f916004808301926020929190829003018186803b158015613c0d57600080fd5b505afa158015613c21573d6000803e3d6000fd5b505050506040513d6020811015613c3757600080fd5b505160025460408051600160e81b90920460ff168252516001600160a01b03909216917f7bb264af598eac77bc57cdad3b10f6eddc737a116ef45e864d3626346dcb23b4916020908290030190a4565b600080613c92614887565b600254909150600160a01b900464ffffffffff1615801590613cc8575060025464ffffffffff600160a01b909104811690821610155b8015613cf55750600254600160a01b810464ffffffffff908116830316600160c81b90910463ffffffff16115b15611b1e57600254600160a01b810464ffffffffff16909103600160c81b90910463ffffffff1603919050565b600c5465010000000000900460ff16151560011490565b6001546001600160a01b031690565b6000306001600160a01b03166302d05d3f6040518163ffffffff1660e01b815260040160206040518083038186803b158015613d8357600080fd5b505afa158015613d97573d6000803e3d6000fd5b505050506040513d6020811015613dad57600080fd5b5051604080516307dc0d1d60e41b815290516001600160a01b0390921691637dc0d1d091600480820192602092909190829003018186803b158015613df157600080fd5b505afa158015613e05573d6000803e3d6000fd5b505050506040513d6020811015613e1b57600080fd5b505160408051631bf80eb160e31b81526001600160a01b0385811660048301529151919092169163dfc07588916024808301926020929190829003018186803b15801561263d57600080fd5b600281565b306001600160a01b0316638da5cb5b6040518163ffffffff1660e01b815260040160206040518083038186803b158015613ea557600080fd5b505afa158015613eb9573d6000803e3d6000fd5b505050506040513d6020811015613ecf57600080fd5b50516001600160a01b031633148015613ef55750600254600160e81b900460ff16600314155b613f39576040805162461bcd60e51b815260206004820152601060248201526f3737ba1030b1ba34bb329037bbb732b960811b604482015290519081900360640190fd5b600c54600160301b900460ff1615613f90576040805162461bcd60e51b81526020600482015260156024820152741a5b9a195c9a5d185b98d9481858dd1a5d985d1959605a1b604482015290519081900360640190fd5b600882511115613fd8576040805162461bcd60e51b815260206004820152600e60248201526d746f6f206d616e7920686569727360901b604482015290519081900360640190fd5b805182511461402e576040805162461bcd60e51b815260206004820152601960248201527f686569727320616e642062707320646f6e2774206d6174636800000000000000604482015290519081900360640190fd5b6000805b835181101561413e5782818151811061404757fe5b602002602001015161ffff168201915060006001600160a01b031684828151811061406e57fe5b60200260200101516001600160a01b031614156140bc576040805162461bcd60e51b81526020600482015260076024820152663737903432b4b960c91b604482015290519081900360640190fd5b306001600160a01b03168482815181106140d257fe5b60200260200101516001600160a01b03161415614136576040805162461bcd60e51b815260206004820152601860248201527f63757272656e7420636f6e747261637420697320686569720000000000000000604482015290519081900360640190fd5b600101614032565b612710821115614182576040805162461bcd60e51b815260206004820152600a602482015269746f74616c3e3130302560b01b604482015290519081900360640190fd5b5060005b83518110156142845760006004826008811061419e57fe5b0190508482815181106141ad57fe5b602090810291909101015181546001600160a01b039081169116146141fe578482815181106141d857fe5b602090810291909101015181546001600160a01b0319166001600160a01b039091161781555b83828151811061420a57fe5b60209081029190910101518154600160a81b900461ffff90811691161461425e5783828151811061423757fe5b6020908102919091010151815461ffff909116600160a81b0261ffff60a81b199091161781555b8054600160a01b900460ff161561427b57805460ff60a01b191681555b50600101614186565b60078110156142c15760006004826008811061429c57fe5b0180549091506001600160a01b0316156142bf5780546001600160a01b03191681555b505b60608167ffffffffffffffff811180156142da57600080fd5b50604051908082528060200260200182016040528015614304578160200160208202803683370190505b50905060608267ffffffffffffffff8111801561432057600080fd5b5060405190808252806020026020018201604052801561434a578160200160208202803683370190505b50905060005b838110156143e05760006004826008811061436757fe5b01805485519192506001600160a01b03169085908490811061438557fe5b60200260200101906001600160a01b031690816001600160a01b0316815250508060000160159054906101000a900461ffff168383815181106143c457fe5b61ffff9092166020928302919091019091015250600101614350565b50336001600160a01b0316306001600160a01b03166302d05d3f6040518163ffffffff1660e01b815260040160206040518083038186803b15801561442457600080fd5b505afa158015614438573d6000803e3d6000fd5b505050506040513d602081101561444e57600080fd5b50516040805181815285519181019190915284516001600160a01b03909216917fa52c4f91db65575e6917fd3e55dc251bf777970366ade6b0df9abc78e0345df591869186919081906020828101916060840191878101910280838360005b838110156144c55781810151838201526020016144ad565b50505050905001838103825284818151815260200191508051906020019060200280838360005b838110156145045781810151838201526020016144ec565b5050505090500194505050505060405180910390a3505050505050565b6000546001600160a01b0316331461456c576040805162461bcd60e51b81526020600482015260096024820152683737ba1037bbb732b960b91b604482015290519081900360640190fd5b6002546001600160a01b031661362f576040805162461bcd60e51b815260206004820152601060248201526f189858dadd5c081b9bdd08195e1a5cdd60821b604482015290519081900360640190fd5b306001600160a01b03166302d05d3f6040518163ffffffff1660e01b815260040160206040518083038186803b1580156145f557600080fd5b505afa158015614609573d6000803e3d6000fd5b505050506040513d602081101561461f57600080fd5b50516001600160a01b0316331461466b576040805162461bcd60e51b815260206004820152600b60248201526a3737ba1031b932b0ba37b960a91b604482015290519081900360640190fd5b6000546001600160a01b0383811691161480159061469157506001600160a01b03821615155b156146b257600080546001600160a01b0319166001600160a01b0384161790555b6001546001600160a01b038281169116148015906146d857506001600160a01b03811615155b156146f957600180546001600160a01b0319166001600160a01b0383161790555b5050565b600254600160e81b900460ff1690565b600081565b600c54600160301b900460ff16151560011490565b6000546001600160a01b03163314614772576040805162461bcd60e51b81526020600482015260096024820152683737ba1037bbb732b960b91b604482015290519081900360640190fd5b306001600160a01b03166302d05d3f6040518163ffffffff1660e01b815260040160206040518083038186803b1580156147ab57600080fd5b505afa1580156147bf573d6000803e3d6000fd5b505050506040513d60208110156147d557600080fd5b5051604080516318beb60960e31b81526001600160c01b03198416600482015290516001600160a01b039092169163c5f5b0489160248082019260009290919082900301818387803b15801561482a57600080fd5b505af115801561187d573d6000803e3d6000fd5b600061488083836040518060400160405280601e81526020017f536166654d6174683a207375627472616374696f6e206f766572666c6f770000815250614aa8565b9392505050565b4290565b6002546001600160a01b0316801561497657306001600160a01b03166302d05d3f6040518163ffffffff1660e01b815260040160206040518083038186803b1580156148d657600080fd5b505afa1580156148ea573d6000803e3d6000fd5b505050506040513d602081101561490057600080fd5b50516040805163cf2f774160e01b81526001600160a01b0384811660048301529151919092169163cf2f774191602480830192600092919082900301818387803b15801561494d57600080fd5b505af1158015614961573d6000803e3d6000fd5b5050600280546001600160a01b031916905550505b600254600160c81b900463ffffffff161561499c576002805463ffffffff60c81b191690555b600254600160a01b900464ffffffffff16156149c4576002805464ffffffffff60a01b191690555b600254600160e81b900460ff16156149e4576002805460ff60e81b191690555b600054604080516302d05d3f60e01b815290516001600160a01b0380851693169130916302d05d3f91600480820192602092909190829003018186803b158015614a2d57600080fd5b505afa158015614a41573d6000803e3d6000fd5b505050506040513d6020811015614a5757600080fd5b505160025460408051600160e81b90920460ff168252516001600160a01b03909216917f7e9b775ba644794a5770a533d5fc90e00b98f998e81c66fce5d7f4e1bc3d8718916020908290030190a450565b60008184841115614b375760405162461bcd60e51b81526004018080602001828103825283818151815260200191508051906020019080838360005b83811015614afc578181015183820152602001614ae4565b50505050905090810190601f168015614b295780820380516001836020036101000a031916815260200191505b509250505060405180910390fd5b505050900390565b604051806101000160405280600890602082028036833750919291505056fea264697066735822122086cd7313791e3b02012d91e9b199eed8073b541f2a0a9ead9481abdea8a5ef0164736f6c634300060b0033",
  "immutableReferences": {},
  "source": "// SPDX-License-Identifier: UNLICENSED\n\npragma solidity 0.6.11;\n\n//import \"openzeppelin-solidity/contracts/math/SafeMath.sol\";\nimport \"../node_modules/openzeppelin-solidity/contracts/token/ERC20/IERC20.sol\";\nimport \"../node_modules/openzeppelin-solidity/contracts/token/ERC721/IERC721.sol\";\nimport \"../node_modules/openzeppelin-solidity/contracts/token/ERC721/IERC721Receiver.sol\";\n\nimport \"./lib/IOracle.sol\";\nimport \"./lib/Heritable.sol\";\n//import \"./Trust.sol\";\n\ncontract Wallet is IStorage, Heritable {\n    //using SafeMath for uint256;\n\n    event SentEther     (address indexed creator, address indexed owner, address indexed to, uint256 value);\n    event Transfer20    (address indexed creator, address indexed token, address from, address indexed to, uint256 value);\n    event Transfer721   (address indexed creator, address indexed token, address from, address indexed to, uint256 id, bytes data);\n\n    function sendEther (address payable _to, uint256 _value) public onlyActiveOwner() {\n        require (_value > 0, \"value == 0\");\n        require (_value <= address(this).balance, \"value > balance\");\n        emit SentEther (this.creator(), address(this), _to, _value);\n        _to.transfer (_value);\n    }\n\n    function transfer20 (address _token, address _to, uint256 _value) public onlyActiveOwner() {\n        require(_token != address(0), \"_token is 0x0\");\n        emit Transfer20 (this.creator(), _token, address(this), _to, _value);\n        IERC20(_token).transfer(_to, _value);\n    }\n\n    function transferFrom20 (address _token, address _from, address _to, uint256 _value) public onlyActiveOwner() {\n        require(_token != address(0), \"_token is 0x0\");\n        address from = _from == address(0) ? address(this): address(_from);\n        emit Transfer20 (this.creator(), _token, from, _to, _value);\n        IERC20(_token).transferFrom(_from, _to, _value);\n    }\n\n    function transfer721 (address _token, address _to, uint256 _value) public onlyActiveOwner() {\n        transferFrom721 (_token, address(0), _to, _value);\n    }\n\n    function transferFrom721 (address _token, address _from, address _to, uint256 _id) public onlyActiveOwner() {\n        require(_token != address(0), \"_token is 0x0\");\n        address from = _from == address(0) ? address(this): address(_from);\n        emit Transfer721 (this.creator(), _token, from, _to, _id, \"\");\n        IERC721(_token).transferFrom(address(this), _to, _id);\n    }\n\n    function safeTransferFrom721 (address _token, address _from, address _to, uint256 _id) public onlyActiveOwner() {\n        require(_token != address(0), \"_token is 0x0\");\n        address from = _from == address(0) ? address(this): address(_from);\n        emit Transfer721 (this.creator(), _token, from, _to, _id, \"\");\n        IERC721(_token).safeTransferFrom(address(this), _to, _id);\n    }\n\n    function safeTransferFrom721$Data (address _token, address _from, address _to, uint256 _id, bytes memory _data) public onlyActiveOwner() {\n        require(_token != address(0), \"_token is 0x0\");\n        address from = _from == address(0) ? address(this): address(_from);\n        emit Transfer721 (this.creator(), _token, from, _to, _id, _data);\n        IERC721(_token).safeTransferFrom(address(this), _to, _id, _data);\n    }\n\n    function getBalance () public view returns (uint256) {\n        return address(this).balance;\n    }\n\n    function balanceOf20 (address _token) public view returns (uint256) {\n        return IERC20(_token).balanceOf(address(this));\n    }\n\n    function balanceOf721 (address _token) public view returns (uint256) {\n        return IERC721(_token).balanceOf(address(this));\n    }\n\n    function is20Safe (address _token) public view returns (bool) {\n        return IOracle(ICreator(this.creator()).oracle()).is20Safe(_token);\n    }\n\n    function is721Safe (address _token) public view returns (bool) {\n        return IOracle(ICreator(this.creator()).oracle()).is721Safe(_token);\n    }\n\n    //function onERC721Received(address operator, address from, uint256 tokenId, bytes data) public returns (bytes4) {\n    function onERC721Received (address, address, uint256, bytes memory) public pure returns (bytes4) {\n        return this.onERC721Received.selector;\n    }\n\n    /*\n    function createTrust(address _wallet, uint40 _start, uint32 _period, uint16 _times, uint256 _amount, bool _cancelable) payable public {\n        require(trust == Trust(0));\n        trust = (new Trust).value(_amount.mul(_times))(_wallet, _start, _period, _times, _amount, _cancelable);\n    }\n\n    function destroyTrust() public {\n        require(trust != Trust(0));\n        trust.destroy();\n        trust = Trust(0);\n    }\n\n    function getTrust() public view returns (Trust) {\n        return trust;\n    }\n    */\n\n    // IStorage Implementation\n    function migrate () external onlyCreator() override {}\n\n    function version() public pure override returns (bytes8){\n        return bytes8(\"1.2.1\");\n    }\n\n    fallback () external { }\n\n}\n",
  "sourcePath": "/Users/Tal/code/kirobo/ki-eth-contracts/contracts/Wallet.sol",
  "compiler": {
    "name": "solc",
    "version": "0.6.11+commit.5ef660b1.Emscripten.clang"
  },
  "schemaVersion": "3.2.0",
  "updatedAt": "2020-08-30T11:55:24.033Z",
  "networkType": "ethereum",
  "devdoc": {
    "kind": "dev",
    "methods": {},
    "version": 1
  },
  "userdoc": {
    "kind": "user",
    "methods": {},
    "version": 1
  }
}