{
    "contractName": "Factory",
    "abi": [
        {
            "inputs": [
                {
                    "internalType": "address",
                    "name": "owner1",
                    "type": "address"
                },
                {
                    "internalType": "address",
                    "name": "owner2",
                    "type": "address"
                },
                {
                    "internalType": "address",
                    "name": "owner3",
                    "type": "address"
                }
            ],
            "stateMutability": "nonpayable",
            "type": "constructor"
        },
        {
            "anonymous": false,
            "inputs": [
                {
                    "indexed": true,
                    "internalType": "bytes8",
                    "name": "version",
                    "type": "bytes8"
                },
                {
                    "indexed": true,
                    "internalType": "address",
                    "name": "code",
                    "type": "address"
                },
                {
                    "indexed": true,
                    "internalType": "address",
                    "name": "oracle",
                    "type": "address"
                }
            ],
            "name": "VersionAdded",
            "type": "event"
        },
        {
            "anonymous": false,
            "inputs": [
                {
                    "indexed": true,
                    "internalType": "bytes8",
                    "name": "version",
                    "type": "bytes8"
                },
                {
                    "indexed": true,
                    "internalType": "address",
                    "name": "code",
                    "type": "address"
                },
                {
                    "indexed": true,
                    "internalType": "address",
                    "name": "oracle",
                    "type": "address"
                }
            ],
            "name": "VersionDeployed",
            "type": "event"
        },
        {
            "anonymous": false,
            "inputs": [
                {
                    "indexed": true,
                    "internalType": "address",
                    "name": "wallet",
                    "type": "address"
                },
                {
                    "indexed": true,
                    "internalType": "bytes8",
                    "name": "version",
                    "type": "bytes8"
                },
                {
                    "indexed": true,
                    "internalType": "address",
                    "name": "owner",
                    "type": "address"
                }
            ],
            "name": "WalletConfigurationRestored",
            "type": "event"
        },
        {
            "anonymous": false,
            "inputs": [
                {
                    "indexed": true,
                    "internalType": "address",
                    "name": "wallet",
                    "type": "address"
                },
                {
                    "indexed": true,
                    "internalType": "bytes8",
                    "name": "version",
                    "type": "bytes8"
                },
                {
                    "indexed": true,
                    "internalType": "address",
                    "name": "owner",
                    "type": "address"
                }
            ],
            "name": "WalletCreated",
            "type": "event"
        },
        {
            "anonymous": false,
            "inputs": [
                {
                    "indexed": true,
                    "internalType": "address",
                    "name": "wallet",
                    "type": "address"
                },
                {
                    "indexed": true,
                    "internalType": "address",
                    "name": "owner",
                    "type": "address"
                }
            ],
            "name": "WalletOwnershipRestored",
            "type": "event"
        },
        {
            "anonymous": false,
            "inputs": [
                {
                    "indexed": true,
                    "internalType": "address",
                    "name": "wallet",
                    "type": "address"
                },
                {
                    "indexed": true,
                    "internalType": "bytes8",
                    "name": "version",
                    "type": "bytes8"
                }
            ],
            "name": "WalletUpgraded",
            "type": "event"
        },
        {
            "anonymous": false,
            "inputs": [
                {
                    "indexed": true,
                    "internalType": "address",
                    "name": "wallet",
                    "type": "address"
                },
                {
                    "indexed": true,
                    "internalType": "bytes8",
                    "name": "version",
                    "type": "bytes8"
                },
                {
                    "indexed": true,
                    "internalType": "address",
                    "name": "owner",
                    "type": "address"
                }
            ],
            "name": "WalletVersionRestored",
            "type": "event"
        },
        {
            "stateMutability": "nonpayable",
            "type": "fallback"
        },
        {
            "inputs": [],
            "name": "LATEST",
            "outputs": [
                {
                    "internalType": "bytes8",
                    "name": "",
                    "type": "bytes8"
                }
            ],
            "stateMutability": "view",
            "type": "function",
            "constant": true
        },
        {
            "inputs": [],
            "name": "cancel",
            "outputs": [],
            "stateMutability": "nonpayable",
            "type": "function"
        },
        {
            "inputs": [],
            "name": "isOwner",
            "outputs": [
                {
                    "internalType": "bool",
                    "name": "",
                    "type": "bool"
                }
            ],
            "stateMutability": "view",
            "type": "function",
            "constant": true
        },
        {
            "inputs": [
                {
                    "internalType": "address",
                    "name": "_owner",
                    "type": "address"
                },
                {
                    "internalType": "address",
                    "name": "_newOwner",
                    "type": "address"
                }
            ],
            "name": "replaceOwner",
            "outputs": [],
            "stateMutability": "nonpayable",
            "type": "function"
        },
        {
            "inputs": [],
            "name": "swProxy",
            "outputs": [
                {
                    "internalType": "contract Proxy",
                    "name": "",
                    "type": "address"
                }
            ],
            "stateMutability": "view",
            "type": "function",
            "constant": true
        },
        {
            "inputs": [],
            "name": "swProxyLatest",
            "outputs": [
                {
                    "internalType": "contract ProxyLatest",
                    "name": "",
                    "type": "address"
                }
            ],
            "stateMutability": "view",
            "type": "function",
            "constant": true
        },
        {
            "inputs": [],
            "name": "target",
            "outputs": [
                {
                    "internalType": "address",
                    "name": "",
                    "type": "address"
                }
            ],
            "stateMutability": "view",
            "type": "function",
            "constant": true
        },
        {
            "inputs": [
                {
                    "internalType": "address",
                    "name": "_newOwner",
                    "type": "address"
                }
            ],
            "name": "transferWalletOwnership",
            "outputs": [],
            "stateMutability": "nonpayable",
            "type": "function"
        },
        {
            "inputs": [
                {
                    "internalType": "address",
                    "name": "_backup",
                    "type": "address"
                }
            ],
            "name": "addWalletBackup",
            "outputs": [],
            "stateMutability": "nonpayable",
            "type": "function"
        },
        {
            "inputs": [
                {
                    "internalType": "address",
                    "name": "_backup",
                    "type": "address"
                }
            ],
            "name": "removeWalletBackup",
            "outputs": [],
            "stateMutability": "nonpayable",
            "type": "function"
        },
        {
            "inputs": [
                {
                    "internalType": "bytes8",
                    "name": "_version",
                    "type": "bytes8"
                }
            ],
            "name": "upgradeWallet",
            "outputs": [],
            "stateMutability": "nonpayable",
            "type": "function"
        },
        {
            "inputs": [
                {
                    "internalType": "address",
                    "name": "_target",
                    "type": "address"
                },
                {
                    "internalType": "address",
                    "name": "_oracle",
                    "type": "address"
                }
            ],
            "name": "addVersion",
            "outputs": [],
            "stateMutability": "nonpayable",
            "type": "function"
        },
        {
            "inputs": [
                {
                    "internalType": "bytes8",
                    "name": "_version",
                    "type": "bytes8"
                }
            ],
            "name": "deployVersion",
            "outputs": [],
            "stateMutability": "nonpayable",
            "type": "function"
        },
        {
            "inputs": [],
            "name": "restoreWalletConfiguration",
            "outputs": [],
            "stateMutability": "nonpayable",
            "type": "function"
        },
        {
            "inputs": [],
            "name": "restoreWalletOwnership",
            "outputs": [],
            "stateMutability": "nonpayable",
            "type": "function"
        },
        {
            "inputs": [],
            "name": "restoreWalletVersion",
            "outputs": [],
            "stateMutability": "nonpayable",
            "type": "function"
        },
        {
            "inputs": [],
            "name": "getLatestVersion",
            "outputs": [
                {
                    "internalType": "address",
                    "name": "",
                    "type": "address"
                }
            ],
            "stateMutability": "view",
            "type": "function",
            "constant": true
        },
        {
            "inputs": [
                {
                    "internalType": "address",
                    "name": "_account",
                    "type": "address"
                }
            ],
            "name": "getWallet",
            "outputs": [
                {
                    "internalType": "address",
                    "name": "",
                    "type": "address"
                }
            ],
            "stateMutability": "view",
            "type": "function",
            "constant": true
        },
        {
            "inputs": [
                {
                    "internalType": "bool",
                    "name": "_auto",
                    "type": "bool"
                }
            ],
            "name": "createWallet",
            "outputs": [
                {
                    "internalType": "address",
                    "name": "",
                    "type": "address"
                }
            ],
            "stateMutability": "nonpayable",
            "type": "function"
        },
        {
            "inputs": [],
            "name": "oracle",
            "outputs": [
                {
                    "internalType": "address",
                    "name": "_oracle",
                    "type": "address"
                }
            ],
            "stateMutability": "view",
            "type": "function",
            "constant": true
        }
    ],
    "bytecode": "0x60806040523480156200001157600080fd5b506040516200336d3803806200336d833981810160405260608110156200003757600080fd5b50805160208201516040909201519091908282828282826001600160a01b0383166200009f576040805162461bcd60e51b815260206004820152601260248201527106f776e6572312063616e6e6f7420626520360741b604482015290519081900360640190fd5b6001600160a01b038216620000f0576040805162461bcd60e51b815260206004820152601260248201527106f776e6572322063616e6e6f7420626520360741b604482015290519081900360640190fd5b6001600160a01b03811662000141576040805162461bcd60e51b815260206004820152601260248201527106f776e6572332063616e6e6f7420626520360741b604482015290519081900360640190fd5b816001600160a01b0316836001600160a01b03161415620001a9576040805162461bcd60e51b815260206004820152601760248201527f6f776e6572312063616e6e6f74206265206f776e657232000000000000000000604482015290519081900360640190fd5b806001600160a01b0316826001600160a01b0316141562000211576040805162461bcd60e51b815260206004820152601760248201527f6f776e6572322063616e6e6f74206265206f776e657233000000000000000000604482015290519081900360640190fd5b806001600160a01b0316836001600160a01b0316141562000279576040805162461bcd60e51b815260206004820152601760248201527f6f776e6572312063616e6e6f74206265206f776e657233000000000000000000604482015290519081900360640190fd5b6001600160a01b039283166000908152602081905260408082208054600160ff19918216811790925594861683528183208054861682179055929094168152839020805490921617905551620002cf90620003a4565b604051809103906000f080158015620002ec573d6000803e3d6000fd5b50600580546001600160a01b0319166001600160a01b03929092169190911790556040516200031b90620003b2565b604051809103906000f08015801562000338573d6000803e3d6000fd5b50600680546001600160a01b03199081166001600160a01b039384161791829055651b185d195cdd60d21b60005260096020527ff5c2ff9c62f1500bae0349717898df1f5d951101798678757bac40a4d7a86c27805492909316911617905550620003c0945050505050565b61047c80620029a083390190565b6105518062002e1c83390190565b6125d080620003d06000396000f3fe608060405234801561001057600080fd5b506004361061012c5760003560e01c806397e61ee4116100ad578063cf2f774111610071578063cf2f7741146102c8578063d4b83992146102ee578063e20056e6146102f6578063e2adec9c14610324578063ea8a1af01461032c5761012c565b806397e61ee41461021f578063a196de831461024d578063a7ecbd8d14610273578063bf3b11011461027b578063c5f5b048146102a15761012c565b80637721904c116100f45780637721904c146101c65780637dc0d1d0146101ce578063842bb732146101d65780638c576fc3146101de5780638f32d59b146102035761012c565b806304d0a6471461012e5780630e6d1de9146101705780631a05b142146101785780632bc68db7146101805780634b613c201461019f575b005b6101546004803603602081101561014457600080fd5b50356001600160a01b0316610334565b604080516001600160a01b039092168252519081900360200190f35b610154610352565b61012c610369565b6101546004803603602081101561019657600080fd5b50351515610573565b61012c600480360360208110156101b557600080fd5b50356001600160c01b031916610a4d565b610154610de8565b610154610df7565b61012c610e54565b6101e6610fa5565b604080516001600160c01b03199092168252519081900360200190f35b61020b610fb2565b604080519115158252519081900360200190f35b61012c6004803603604081101561023557600080fd5b506001600160a01b0381358116916020013516610fc8565b61012c6004803603602081101561026357600080fd5b50356001600160a01b03166115d1565b61012c6117cf565b61012c6004803603602081101561029157600080fd5b50356001600160a01b03166119d0565b61012c600480360360208110156102b757600080fd5b50356001600160c01b031916611c57565b61012c600480360360208110156102de57600080fd5b50356001600160a01b0316611ed8565b610154611fec565b61012c6004803603604081101561030c57600080fd5b506001600160a01b0381358116916020013516611ffb565b61015461232d565b61012c61233c565b6001600160a01b039081166000908152600760205260409020541690565b600a54600160401b90046001600160a01b03165b90565b33600090815260076020526040902080546001600160a01b03166103c0576040805162461bcd60e51b81526020600482015260096024820152681b9bc81dd85b1b195d60ba1b604482015290519081900360640190fd5b8054600160a01b900460ff161515600114610415576040805162461bcd60e51b815260206004820152601060248201526f3737ba103bb0b63632ba1037bbb732b960811b604482015290519081900360640190fd5b80546001600160a01b031660009081526008602052604090205460c01b6001600160c01b03198116651b185d195cdd60d21b14156104555750600a5460c01b5b6001600160c01b031981166000908152600960205260409020546001600160a01b0316806104be576040805162461bcd60e51b81526020600482015260116024820152701d995c9cda5bdb881b9bdd08195e1a5cdd607a1b604482015290519081900360640190fd5b82546040805163784d200b60e11b81523360048201526001600160a01b0384811660248301529151919092169163f09a401691604480830192600092919082900301818387803b15801561051157600080fd5b505af1158015610525573d6000803e3d6000fd5b505084546040513393506001600160c01b0319861692506001600160a01b03909116907f9dff4715dcc255fd0abdc515933401366bac62424c60e57d607dfe9003f2dc1790600090a4505050565b6005546000906001600160a01b03166105be576040805162461bcd60e51b81526020600482015260086024820152676e6f2070726f787960c01b604482015290519081900360640190fd5b600a54600160401b90046001600160a01b0316610614576040805162461bcd60e51b815260206004820152600f60248201526e373790383937b2103b32b939b4b7b760891b604482015290519081900360640190fd5b33600090815260076020526040902080546001600160a01b0316610a3d576005546106499030906001600160a01b03166123a0565b81546001600160a01b0319166001600160a01b0391821617808355166106b6576040805162461bcd60e51b815260206004820152601260248201527f77616c6c6574206e6f7420637265617465640000000000000000000000000000604482015290519081900360640190fd5b805460ff60a01b1916600160a01b17815582156108ed576006546001600160a01b031661071c576040805162461bcd60e51b815260206004820152600f60248201526e37379030baba37903b32b939b4b7b760891b604482015290519081900360640190fd5b600654651b185d195cdd60d21b60005260096020527ff5c2ff9c62f1500bae0349717898df1f5d951101798678757bac40a4d7a86c27546001600160a01b039081169116146107b2576040805162461bcd60e51b815260206004820152601660248201527f696e636f7272656374206175746f2076657273696f6e00000000000000000000604482015290519081900360640190fd5b80546001600160a01b03908116600090815260086020526040808220805467ffffffffffffffff1916676c617465737400001790558354600654825163784d200b60e11b81523360048201529085166024820152915193169263f09a40169260448084019391929182900301818387803b15801561082f57600080fd5b505af1158015610843573d6000803e3d6000fd5b505082546040805163011fa75760e71b815290516001600160a01b039092169350638fd3ab80925060048082019260009290919082900301818387803b15801561088c57600080fd5b505af11580156108a0573d6000803e3d6000fd5b50508254604051339350651b185d195cdd60d21b92506001600160a01b03909116907f689c6b1155ee0314d789d2c8968b47cb04b9c8592446c127023fc6399b17310c90600090a4610a3d565b600a805482546001600160a01b03908116600090815260086020526040808220805467ffffffffffffffff191667ffffffffffffffff9095169490941790935584549354835163784d200b60e11b8152336004820152600160401b909104831660248201529251939091169263f09a401692604480820193929182900301818387803b15801561097c57600080fd5b505af1158015610990573d6000803e3d6000fd5b505082546040805163011fa75760e71b815290516001600160a01b039092169350638fd3ab80925060048082019260009290919082900301818387803b1580156109d957600080fd5b505af11580156109ed573d6000803e3d6000fd5b5050600a54835460405133945060c09290921b6001600160c01b03191692506001600160a01b0316907f689c6b1155ee0314d789d2c8968b47cb04b9c8592446c127023fc6399b17310c90600090a45b546001600160a01b031692915050565b3360009081526020819052604081205460ff16610a9f576040805162461bcd60e51b815260206004820152600b60248201526a6f6e6c79206f776e65727360a81b604482015290519081900360640190fd5b6001546001600160a01b0316610ad957600180546001600160a01b03191633179055610ace600360003661245c565b506002819055610de4565b6001546001600160a01b0316331415610b39576040805162461bcd60e51b815260206004820152601c60248201527f73616d65206f776e65722063616e6e6f74207369676e20747769636500000000604482015290519081900360640190fd5b6002548114610b8a576040805162461bcd60e51b81526020600482015260186024820152776d757374207369676e207468652073616d652076616c756560401b604482015290519081900360640190fd5b60003660405180838380828437604051920182900382206003805491965094509192508291849150600260001961010060018416150201909116048015610c085780601f10610be6576101008083540402835291820191610c08565b820191906000526020600020905b815481529060010190602001808311610bf4575b5050915050604051809103902014610c61576040805162461bcd60e51b81526020600482015260176024820152766d757374207369676e207468652073616d65206461746160481b604482015290519081900360640190fd5b600180546001600160a01b03191690556001600160c01b031982166000908152600960205260409020546001600160a01b031680610cda576040805162461bcd60e51b81526020600482015260116024820152701d995c9cda5bdb881b9bdd08195e1a5cdd607a1b604482015290519081900360640190fd5b6001600160c01b031983166000908152600c60205260409020546001600160a01b031680610d42576040805162461bcd60e51b815260206004820152601060248201526f1bdc9858db19481b9bdd08195e1a5cdd60821b604482015290519081900360640190fd5b600a805467ffffffffffffffff191660c086901c177fffffffff0000000000000000000000000000000000000000ffffffffffffffff16600160401b6001600160a01b0385811691820292909217909255600b80546001600160a01b03191691841691821790556040519091906001600160c01b03198716907fb4d04ce57b22f1de0bfbaebe42d34d0616a77b6de95fde396bbd054851d22f5890600090a450505b5050565b6005546001600160a01b031681565b3360009081526008602052604081205460c01b6001600160c01b03198116651b185d195cdd60d21b1415610e2d5750600a5460c01b5b6001600160c01b0319166000908152600c60205260409020546001600160a01b0316919050565b33600090815260076020526040902080546001600160a01b0316610eab576040805162461bcd60e51b81526020600482015260096024820152681b9bc81dd85b1b195d60ba1b604482015290519081900360640190fd5b8054600160a01b900460ff161515600114610f00576040805162461bcd60e51b815260206004820152601060248201526f3737ba103bb0b63632ba1037bbb732b960811b604482015290519081900360640190fd5b80546040805163784d200b60e11b815233600482015260006024820181905291516001600160a01b039093169263f09a40169260448084019391929182900301818387803b158015610f5157600080fd5b505af1158015610f65573d6000803e3d6000fd5b505082546040513393506001600160a01b0390911691507f5818d755b157239746017f59fc87c7100652290409a15a7d4fba19ff98efcb5f90600090a350565b651b185d195cdd60d21b81565b3360009081526020819052604090205460ff1690565b3360009081526020819052604081205460ff1661101a576040805162461bcd60e51b815260206004820152600b60248201526a6f6e6c79206f776e65727360a81b604482015290519081900360640190fd5b6001546001600160a01b031661105457600180546001600160a01b03191633179055611049600360003661245c565b5060028190556115cc565b6001546001600160a01b03163314156110b4576040805162461bcd60e51b815260206004820152601c60248201527f73616d65206f776e65722063616e6e6f74207369676e20747769636500000000604482015290519081900360640190fd5b6002548114611105576040805162461bcd60e51b81526020600482015260186024820152776d757374207369676e207468652073616d652076616c756560401b604482015290519081900360640190fd5b600036604051808383808284376040519201829003822060038054919650945091925082918491506002600019610100600184161502019091160480156111835780601f10611161576101008083540402835291820191611183565b820191906000526020600020905b81548152906001019060200180831161116f575b50509150506040518091039020146111dc576040805162461bcd60e51b81526020600482015260176024820152766d757374207369676e207468652073616d65206461746160481b604482015290519081900360640190fd5b600180546001600160a01b03191690556001600160a01b038316611234576040805162461bcd60e51b815260206004820152600a6024820152693737903b32b939b4b7b760b11b604482015290519081900360640190fd5b6001600160a01b03821661128f576040805162461bcd60e51b815260206004820152601160248201527f6e6f206f7261636c652076657273696f6e000000000000000000000000000000604482015290519081900360640190fd5b816001600160a01b031663158ef93e6040518163ffffffff1660e01b815260040160206040518083038186803b1580156112c857600080fd5b505afa1580156112dc573d6000803e3d6000fd5b505050506040513d60208110156112f257600080fd5b5051611345576040805162461bcd60e51b815260206004820152601660248201527f6f7261636c65206e6f7420696e697469616c697a656400000000000000000000604482015290519081900360640190fd5b6000836001600160a01b03166354fd4d506040518163ffffffff1660e01b815260040160206040518083038186803b15801561138057600080fd5b505afa158015611394573d6000803e3d6000fd5b505050506040513d60208110156113aa57600080fd5b50516040805163054fd4d560e41b815290519192506001600160c01b03198316916001600160a01b038616916354fd4d50916004808301926020929190829003018186803b1580156113fb57600080fd5b505afa15801561140f573d6000803e3d6000fd5b505050506040513d602081101561142557600080fd5b50516001600160c01b03191614611483576040805162461bcd60e51b815260206004820152601160248201527f76657273696f6e206d6973746d61746368000000000000000000000000000000604482015290519081900360640190fd5b6001600160c01b031981166000908152600960205260409020546001600160a01b031680156114ea576040805162461bcd60e51b815260206004820152600e60248201526d76657273696f6e2065786973747360901b604482015290519081900360640190fd5b6001600160c01b031982166000908152600c60205260409020546001600160a01b03161561154f576040805162461bcd60e51b815260206004820152600d60248201526c6f7261636c652065786973747360981b604482015290519081900360640190fd5b6001600160c01b03198216600081815260096020908152604080832080546001600160a01b03808c166001600160a01b031992831617909255600c90935281842080548a8316941684179055905191939085169290917ff3c8e7c782d00f601a9d70107849e3f4894c000271e60377966bcfa99ca3ead29190a450505b505050565b6001600160a01b038082166000908152600760205260409020805490911615611641576040805162461bcd60e51b815260206004820152601460248201527f6261636b757020686173206e6f2077616c6c6574000000000000000000000000604482015290519081900360640190fd5b8054600160a01b900460ff161561169f576040805162461bcd60e51b815260206004820152601660248201527f6261636b75702069732077616c6c6574206f776e657200000000000000000000604482015290519081900360640190fd5b6000336001600160a01b0316638da5cb5b6040518163ffffffff1660e01b815260040160206040518083038186803b1580156116da57600080fd5b505afa1580156116ee573d6000803e3d6000fd5b505050506040513d602081101561170457600080fd5b50516001600160a01b038082166000908152600760205260409020805492935091163314611766576040805162461bcd60e51b815260206004820152600a6024820152691b9bdd081dd85b1b195d60b21b604482015290519081900360640190fd5b8054600160a01b900460ff1615156001146117ba576040805162461bcd60e51b815260206004820152600f60248201526e3737903bb0b63632ba1037bbb732b960891b604482015290519081900360640190fd5b505080546001600160a01b0319163317905550565b33600090815260076020526040902080546001600160a01b0316611826576040805162461bcd60e51b81526020600482015260096024820152681b9bc81dd85b1b195d60ba1b604482015290519081900360640190fd5b8054600160a01b900460ff16151560011461187b576040805162461bcd60e51b815260206004820152601060248201526f3737ba103bb0b63632ba1037bbb732b960811b604482015290519081900360640190fd5b80546001600160a01b031660009081526008602052604090205460c01b6001600160c01b03198116651b185d195cdd60d21b14156118bb5750600a5460c01b5b6001600160c01b031981166000908152600960205260409020546001600160a01b03168061191d576040805162461bcd60e51b815260206004820152600a6024820152693737903b32b939b4b7b760b11b604482015290519081900360640190fd5b82546040805163784d200b60e11b81526000600482018190526001600160a01b0385811660248401529251929093169263f09a40169260448084019382900301818387803b15801561196e57600080fd5b505af1158015611982573d6000803e3d6000fd5b505084546040513393506001600160c01b0319861692506001600160a01b03909116907f674e126c2ea08c63dbe99eca56b1e9bd3b8d412a467e57060a5953f6e3c2060090600090a4505050565b6000336001600160a01b0316638da5cb5b6040518163ffffffff1660e01b815260040160206040518083038186803b158015611a0b57600080fd5b505afa158015611a1f573d6000803e3d6000fd5b505050506040513d6020811015611a3557600080fd5b50516001600160a01b038082166000908152600760205260409020805492935091163314611a9c576040805162461bcd60e51b815260206004820152600f60248201526e199c9bdb4e881b9bc81dd85b1b195d608a1b604482015290519081900360640190fd5b8054600160a01b900460ff161515600114611afe576040805162461bcd60e51b815260206004820152601660248201527f66726f6d3a206e6f742077616c6c6574206f776e657200000000000000000000604482015290519081900360640190fd5b6001600160a01b03838116600090815260076020526040902080549091163314611b6f576040805162461bcd60e51b815260206004820152601b60248201527f746f3a206e6f742073616d652077616c6c65742061732066726f6d0000000000604482015290519081900360640190fd5b8054600160a01b900460ff1615611bc0576040805162461bcd60e51b815260206004820152601060248201526f3a379d103bb0b63632ba1037bbb732b960811b604482015290519081900360640190fd5b805460ff60a01b1916600160a01b178155815474ffffffffffffffffffffffffffffffffffffffffff191682556040805163784d200b60e11b81526001600160a01b03861660048201526000602482018190529151339263f09a4016926044808201939182900301818387803b158015611c3957600080fd5b505af1158015611c4d573d6000803e3d6000fd5b5050505050505050565b6001600160c01b031981166000908152600960205260409020546001600160a01b031680611cbe576040805162461bcd60e51b815260206004820152600f60248201526e6e6f2076657273696f6e20636f646560881b604482015290519081900360640190fd5b6000336001600160a01b0316638da5cb5b6040518163ffffffff1660e01b815260040160206040518083038186803b158015611cf957600080fd5b505afa158015611d0d573d6000803e3d6000fd5b505050506040513d6020811015611d2357600080fd5b50516001600160a01b0380821660009081526007602052604090208054929350911633148015611d6057508054600160a01b900460ff1615156001145b611db1576040805162461bcd60e51b815260206004820152601a60248201527f73656e646572206973206e6f742077616c6c6574206f776e6572000000000000604482015290519081900360640190fd5b80546001600160a01b03908116600090815260086020526040808220805467ffffffffffffffff191660c089901c179055805163784d200b60e11b81528584166004820152928616602484015251339263f09a401692604480830193919282900301818387803b158015611e2457600080fd5b505af1158015611e38573d6000803e3d6000fd5b50505050336001600160a01b0316638fd3ab806040518163ffffffff1660e01b8152600401600060405180830381600087803b158015611e7757600080fd5b505af1158015611e8b573d6000803e3d6000fd5b505082546040516001600160c01b0319881693506001600160a01b0390911691507feafb3b932d1424e32ec924eb9695430fd852ce33327c076abb1699b72ec58f1690600090a350505050565b6001600160a01b038116611f1f576040805162461bcd60e51b815260206004820152600960248201526806e6f206261636b75760bc1b604482015290519081900360640190fd5b6001600160a01b03808216600090815260076020526040902080549091163314611f7d576040805162461bcd60e51b815260206004820152600a6024820152691b9bdd081dd85b1b195d60b21b604482015290519081900360640190fd5b8054600160a01b900460ff1615611fdb576040805162461bcd60e51b815260206004820152601760248201527f77616c6c6574206261636b7570206e6f74206578697374000000000000000000604482015290519081900360640190fd5b80546001600160a01b031916905550565b6004546001600160a01b031681565b3360009081526020819052604081205460ff1661204d576040805162461bcd60e51b815260206004820152600b60248201526a6f6e6c79206f776e65727360a81b604482015290519081900360640190fd5b6001546001600160a01b031661207c57600180546001600160a01b03191633179055611049600360003661245c565b6001546001600160a01b03163314156120dc576040805162461bcd60e51b815260206004820152601c60248201527f73616d65206f776e65722063616e6e6f74207369676e20747769636500000000604482015290519081900360640190fd5b600254811461212d576040805162461bcd60e51b81526020600482015260186024820152776d757374207369676e207468652073616d652076616c756560401b604482015290519081900360640190fd5b600036604051808383808284376040519201829003822060038054919650945091925082918491506002600019610100600184161502019091160480156121ab5780601f106121895761010080835404028352918201916121ab565b820191906000526020600020905b815481529060010190602001808311612197575b5050915050604051809103902014612204576040805162461bcd60e51b81526020600482015260176024820152766d757374207369676e207468652073616d65206461746160481b604482015290519081900360640190fd5b600180546001600160a01b03191681556001600160a01b03841660009081526020819052604090205460ff16151514612284576040805162461bcd60e51b815260206004820152601260248201527f6f776e65722073686f756c642065786973740000000000000000000000000000604482015290519081900360640190fd5b6001600160a01b03821660009081526020819052604090205460ff16156122f2576040805162461bcd60e51b815260206004820152601a60248201527f6e6577206f776e65722073686f756c64206e6f74206578697374000000000000604482015290519081900360640190fd5b6001600160a01b03808416600090815260208190526040808220805460ff199081169091559285168252902080549091166001179055505050565b6006546001600160a01b031681565b3360009081526020819052604090205460ff1661238e576040805162461bcd60e51b815260206004820152600b60248201526a6f6e6c79206f776e65727360a81b604482015290519081900360640190fd5b600180546001600160a01b0319169055565b600060606040518060e0016040528060a681526020016124f560a691399050606084811b9084901b60005b6014811015612448578281601481106123e057fe5b1a60f81b8482603d01815181106123f357fe5b60200101906001600160f81b031916908160001a90535081816014811061241657fe5b1a60f81b84826065018151811061242957fe5b60200101906001600160f81b031916908160001a9053506001016123cb565b508251602084016000f09695505050505050565b828054600181600116156101000203166002900490600052602060002090601f016020900481019282601f1061249d5782800160ff198235161785556124ca565b828001600101855582156124ca579182015b828111156124ca5782358255916020019190600101906124af565b506124d69291506124da565b5090565b61036691905b808211156124d657600081556001016124e056fe60998061000d6000396000f30036601657341560145734602052336001602080a25b005b6000805260046000601c376302d05d3f6000511415604b5773dadadadadadadadadadadadadadadadadadadada602052602080f35b366000803760008036600073bebebebebebebebebebebebebebebebebebebebe5af415608f57341560855734602052600051336002602080a35b3d6000803e3d6000f35b3d6000803e3d6000fda26469706673582212206cf2b89bf6111ba0956258d146b9f7e133a05eb9df1fca6d7f4cf5f339c227bd64736f6c634300060b0033608060405234801561001057600080fd5b50600080546001600160a01b0319163317905561044a806100326000396000f3fe60806040526004361061004e5760003560e01c806302d05d3f146100c65780638da5cb5b146100f7578063d4b839921461010c578063f09a401614610121578063fec5a18d1461015e576100a0565b366100a0576040805162461bcd60e51b815260206004820181905260248201527f73686f756c64206e6f7420616363657074206574686572206469726563746c79604482015290519081900360640190fd5b36600080376000803660006001545af43d6000803e80156100c0573d6000f35b503d6000fd5b3480156100d257600080fd5b506100db610192565b604080516001600160a01b039092168252519081900360200190f35b34801561010357600080fd5b506100db610197565b34801561011857600080fd5b506100db6101a6565b34801561012d57600080fd5b5061015c6004803603604081101561014457600080fd5b506001600160a01b03813581169160200135166101b5565b005b34801561016a57600080fd5b5061015c6004803603602081101561018157600080fd5b50356001600160c01b0319166102f6565b600090565b6000546001600160a01b031690565b6001546001600160a01b031690565b306001600160a01b03166302d05d3f6040518163ffffffff1660e01b815260040160206040518083038186803b1580156101ee57600080fd5b505afa158015610202573d6000803e3d6000fd5b505050506040513d602081101561021857600080fd5b50516001600160a01b03163314610264576040805162461bcd60e51b815260206004820152600b60248201526a3737ba1031b932b0ba37b960a91b604482015290519081900360640190fd5b6000546001600160a01b0383811691161480159061028a57506001600160a01b03821615155b156102ab57600080546001600160a01b0319166001600160a01b0384161790555b6001546001600160a01b038281169116148015906102d157506001600160a01b03811615155b156102f257600180546001600160a01b0319166001600160a01b0383161790555b5050565b6000546001600160a01b03163314610341576040805162461bcd60e51b81526020600482015260096024820152683737ba1037bbb732b960b91b604482015290519081900360640190fd5b306001600160a01b03166302d05d3f6040518163ffffffff1660e01b815260040160206040518083038186803b15801561037a57600080fd5b505afa15801561038e573d6000803e3d6000fd5b505050506040513d60208110156103a457600080fd5b5051604080516318beb60960e31b81526001600160c01b03198416600482015290516001600160a01b039092169163c5f5b0489160248082019260009290919082900301818387803b1580156103f957600080fd5b505af115801561040d573d6000803e3d6000fd5b505050505056fea264697066735822122020de30b8c9af03ad30168309ec07b1b9f556ece7de337978db2519a56cd3f80364736f6c634300060b0033608060405234801561001057600080fd5b50600080546001600160a01b0319163317905561051f806100326000396000f3fe60806040526004361061004e5760003560e01c806302d05d3f1461019b5780638da5cb5b146101cc578063d4b83992146101e1578063f09a4016146101f6578063fec5a18d14610233576100a0565b366100a0576040805162461bcd60e51b815260206004820181905260248201527f73686f756c64206e6f7420616363657074206574686572206469726563746c79604482015290519081900360640190fd5b6000306001600160a01b03166302d05d3f6040518163ffffffff1660e01b815260040160206040518083038186803b1580156100db57600080fd5b505afa1580156100ef573d6000803e3d6000fd5b505050506040513d602081101561010557600080fd5b505160408051630e6d1de960e01b815290516001600160a01b0390921691630e6d1de991600480820192602092909190829003018186803b15801561014957600080fd5b505afa15801561015d573d6000803e3d6000fd5b505050506040513d602081101561017357600080fd5b505190503660008037600080366000845af43d6000803e8015610195573d6000f35b503d6000fd5b3480156101a757600080fd5b506101b0610267565b604080516001600160a01b039092168252519081900360200190f35b3480156101d857600080fd5b506101b061026c565b3480156101ed57600080fd5b506101b061027b565b34801561020257600080fd5b506102316004803603604081101561021957600080fd5b506001600160a01b038135811691602001351661028a565b005b34801561023f57600080fd5b506102316004803603602081101561025657600080fd5b50356001600160c01b0319166103cb565b600090565b6000546001600160a01b031690565b6001546001600160a01b031690565b306001600160a01b03166302d05d3f6040518163ffffffff1660e01b815260040160206040518083038186803b1580156102c357600080fd5b505afa1580156102d7573d6000803e3d6000fd5b505050506040513d60208110156102ed57600080fd5b50516001600160a01b03163314610339576040805162461bcd60e51b815260206004820152600b60248201526a3737ba1031b932b0ba37b960a91b604482015290519081900360640190fd5b6000546001600160a01b0383811691161480159061035f57506001600160a01b03821615155b1561038057600080546001600160a01b0319166001600160a01b0384161790555b6001546001600160a01b038281169116148015906103a657506001600160a01b03811615155b156103c757600180546001600160a01b0319166001600160a01b0383161790555b5050565b6000546001600160a01b03163314610416576040805162461bcd60e51b81526020600482015260096024820152683737ba1037bbb732b960b91b604482015290519081900360640190fd5b306001600160a01b03166302d05d3f6040518163ffffffff1660e01b815260040160206040518083038186803b15801561044f57600080fd5b505afa158015610463573d6000803e3d6000fd5b505050506040513d602081101561047957600080fd5b5051604080516318beb60960e31b81526001600160c01b03198416600482015290516001600160a01b039092169163c5f5b0489160248082019260009290919082900301818387803b1580156104ce57600080fd5b505af11580156104e2573d6000803e3d6000fd5b505050505056fea2646970667358221220918fd4cd0fed67c70c011ab9c3f4da29a538dbcd9436fb683ad89d74f329df5264736f6c634300060b0033",
    "immutableReferences": {},
    "source": "// SPDX-License-Identifier: UNLICENSED\n\npragma solidity 0.6.11;\n\nimport \"./FactoryStorage.sol\";\nimport \"./lib/IOracle.sol\";\n\ncontract Factory is FactoryStorage {\n\n    event WalletCreated(address indexed wallet, bytes8 indexed version, address indexed owner);\n    event WalletUpgraded(address indexed wallet, bytes8 indexed version);\n    event WalletConfigurationRestored(address indexed wallet, bytes8 indexed version, address indexed owner);\n    event WalletOwnershipRestored(address indexed wallet, address indexed owner);\n    event WalletVersionRestored(address indexed wallet, bytes8 indexed version, address indexed owner);\n    event VersionAdded(bytes8 indexed version, address indexed code, address indexed oracle);\n    event VersionDeployed(bytes8 indexed version, address indexed code, address indexed oracle);\n\n    constructor (address owner1, address owner2, address owner3) FactoryStorage(owner1, owner2, owner3) public {\n    }\n\n    function _createWallet(address _creator, address _target) private returns (address result) {\n        bytes memory\n        _code = hex\"60998061000d6000396000f30036601657341560145734602052336001602080a25b005b6000805260046000601c376302d05d3f6000511415604b5773dadadadadadadadadadadadadadadadadadadada602052602080f35b366000803760008036600073bebebebebebebebebebebebebebebebebebebebe5af415608f57341560855734602052600051336002602080a35b3d6000803e3d6000f35b3d6000803e3d6000fd\"; //log3-event-ids-address-funcid-opt (-2,-2) (min: 22440)\n        bytes20 creatorBytes = bytes20(_creator);\n        bytes20 targetBytes = bytes20(_target);\n        for (uint i = 0; i < 20; i++) {\n            _code[61 + i] = creatorBytes[i];\n            _code[101 + i] = targetBytes[i];\n        }\n        // solium-disable-next-line security/no-inline-assembly\n        assembly {\n            result := create(0, add(_code, 0x20), mload(_code))\n        }\n    }\n\n    function transferWalletOwnership(address _newOwner) external {\n        address _curOwner = IProxy(msg.sender).owner();\n        Wallet storage _sw = accounts_wallet[_curOwner];\n        require(msg.sender == _sw.addr, \"from: no wallet\");\n        require(_sw.owner == true, \"from: not wallet owner\");\n        Wallet storage _sw2 = accounts_wallet[_newOwner];\n        require(msg.sender == _sw2.addr, \"to: not same wallet as from\");\n        require(_sw2.owner == false, \"to: wallet owner\");\n        _sw2.owner = true;\n        _sw.owner = false;\n        _sw.addr = address(0);\n        IProxy(msg.sender).init(_newOwner, address(0));\n    }\n\n    function addWalletBackup(address _backup) external {\n        Wallet storage _sw = accounts_wallet[_backup];\n        require(_sw.addr == address(0), \"backup has no wallet\");\n        require(_sw.owner == false, \"backup is wallet owner\"); //\n        address _owner = IProxy(msg.sender).owner();\n        Wallet storage _sw_owner = accounts_wallet[_owner];\n        require(msg.sender == _sw_owner.addr, \"not wallet\");\n        require(_sw_owner.owner == true, \"no wallet owner\");\n        _sw.addr = msg.sender;\n    }\n\n    function removeWalletBackup(address _backup) external {\n        require(_backup != address(0), \"no backup\");\n        Wallet storage _sw = accounts_wallet[_backup];\n        require(_sw.addr == msg.sender, \"not wallet\");\n        require(_sw.owner == false, \"wallet backup not exist\");\n        _sw.addr = address(0);\n    }\n\n    function upgradeWallet(bytes8 _version) external {\n        address _code = versions_code[_version];\n        require(_code != address(0), \"no version code\");\n        address _owner = IProxy(msg.sender).owner();\n        Wallet storage _sw = accounts_wallet[_owner];\n        require(msg.sender == _sw.addr && _sw.owner == true, \"sender is not wallet owner\");\n        wallets_version[_sw.addr] = _version;\n        IProxy(msg.sender).init(_owner, _code);\n        IStorage(msg.sender).migrate();\n        emit WalletUpgraded(_sw.addr, _version);\n    }\n\n    function addVersion(address _target, address _oracle) multiSig2of3(0) public {\n        require(_target != address(0), \"no version\");\n        require(_oracle != address(0), \"no oracle version\");\n        require(IOracle(_oracle).initialized() != false, \"oracle not initialized\");\n        bytes8 _version = IStorage(_target).version();\n        require(IOracle(_oracle).version() == _version, 'version mistmatch');\n        address _code = versions_code[_version];\n        require(_code == address(0), \"version exists\");\n        require(versions_oracle[_version] == address(0), \"oracle exists\");\n        versions_code[_version] = _target;\n        versions_oracle[_version] = _oracle;\n        emit VersionAdded(_version, _code, _oracle);\n    }\n\n    function deployVersion(bytes8 _version) multiSig2of3(0) public {\n        address _code = versions_code[_version];\n        require(_code != address(0), \"version not exist\");\n        address _oracle = versions_oracle[_version];\n        require(_oracle != address(0), \"oracle not exist\");\n        production_version = _version;\n        production_version_code = _code;\n        production_version_oracle = _oracle;\n        emit VersionDeployed(_version, _code, _oracle);\n    }\n\n    function restoreWalletConfiguration() public {\n        Wallet storage _sw = accounts_wallet[msg.sender];\n        require(_sw.addr != address(0), \"no wallet\");\n        require(_sw.owner == true, \"not wallet owner\");\n        bytes8 _version = wallets_version[_sw.addr];\n        if (_version == LATEST) {\n            _version = production_version;\n        }\n        address _code = versions_code[_version];\n        require(_code != address(0), \"version not exist\");\n        IProxy(_sw.addr).init(msg.sender, _code);\n        emit WalletConfigurationRestored(_sw.addr, _version, msg.sender);\n    }\n\n    function restoreWalletOwnership() public {\n        Wallet storage _sw = accounts_wallet[msg.sender];\n        require(_sw.addr != address(0), \"no wallet\");\n        require(_sw.owner == true, \"not wallet owner\");\n\n        IProxy(_sw.addr).init(msg.sender, address(0));\n        emit WalletOwnershipRestored(_sw.addr, msg.sender);\n    }\n\n    function restoreWalletVersion() public {\n        Wallet storage _sw = accounts_wallet[msg.sender];\n        require(_sw.addr != address(0), \"no wallet\");\n        require(_sw.owner == true, \"not wallet owner\");\n\n        bytes8 _version = wallets_version[_sw.addr];\n        if (_version == LATEST) {\n            _version = production_version;\n        }\n        address _code = versions_code[_version];\n        require(_code != address(0), \"no version\");\n        IProxy(_sw.addr).init(address(0), _code);\n        emit WalletVersionRestored(_sw.addr, _version, msg.sender);\n    }\n\n    function getLatestVersion() public view returns (address) {\n        return production_version_code;\n    }\n\n    function getWallet(address _account) public view returns (address) {\n        return accounts_wallet[_account].addr;\n    }\n\n    function createWallet(bool _auto) public returns (address) {\n        require(address(swProxy) != address(0), \"no proxy\");\n        require(production_version_code != address(0), \"no prod version\"); //Must be here - ProxyLatest also needs it.\n        Wallet storage _sw = accounts_wallet[msg.sender];\n        if (_sw.addr == address(0)) {\n            _sw.addr = _createWallet(address(this), address(swProxy));\n            require(_sw.addr != address(0), \"wallet not created\");\n            _sw.owner = true;\n            if (_auto) {\n                require(address(swProxyLatest) != address(0), \"no auto version\");\n                require(versions_code[LATEST] == address(swProxyLatest), \"incorrect auto version\");\n                wallets_version[_sw.addr] = LATEST;\n                IProxy(_sw.addr).init(msg.sender, address(swProxyLatest));\n                IStorage(_sw.addr).migrate();\n                emit WalletCreated(_sw.addr, LATEST, msg.sender);\n            } else {\n                wallets_version[_sw.addr] = production_version;\n                IProxy(_sw.addr).init(msg.sender, production_version_code);\n                IStorage(_sw.addr).migrate();\n                emit WalletCreated(_sw.addr, production_version, msg.sender);\n            }\n\n        }\n        return _sw.addr;\n    }\n\n    function oracle() public view returns (address _oracle) {\n        bytes8 _version = wallets_version[msg.sender];\n        if (_version == LATEST) {\n            _version = production_version;\n        }\n        _oracle = versions_oracle[_version];\n    }\n\n    /*\n    receive () external payable {\n      if (msg.value > 0) {\n        emit GotEther(msg.sender, msg.value);\n      }\n    }\n    */\n\n    fallback () external {\n      /*\n        bytes8 _version = wallets_version[msg.sender];\n        if (_version == LATEST) {\n            _version = production_version;\n        }\n        address _oracle = versions_oracle[_version];\n       */\n        //require(_oracle != address(0), \"no oracle code\");\n        /*\n        // solium-disable-next-line security/no-inline-assembly\n        assembly {\n                calldatacopy(0x00, 0x00, calldatasize)\n                //let res := call(gas, sload(oracle_slot), callvalue, 0x00, calldatasize, 0, 0)\n                let res := staticcall(gas, sload(_oracle), 0x00, calldatasize, 0, 0)\n                returndatacopy(0x00, 0x00, returndatasize)\n                if res { return(0x00, returndatasize) }\n                revert(0x00, returndatasize)\n            }\n            */\n    }\n}\n\n",
    "sourcePath": "/Users/Tal/code/kirobo/ki-eth-contracts/contracts/Factory.sol",
    "compiler": {
        "name": "solc",
        "version": "0.6.11+commit.5ef660b1.Emscripten.clang"
    },
    "schemaVersion": "3.2.0",
    "updatedAt": "2020-08-30T11:55:24.006Z",
    "networkType": "ethereum",
    "devdoc": {
        "kind": "dev",
        "methods": {},
        "version": 1
    },
    "userdoc": {
        "kind": "user",
        "methods": {},
        "version": 1
    }
}